:020000040800F2
:10000000000400209D010008D30200087F020008C0
:10001000D1020008E50100080D04000800000000FE
:10002000000000000000000000000000F5020008D1
:10003000E701000800000000D5020008B501000833
:10004000B7010008B7010008B7010008B7010008B0
:10005000B7010008B7010008B7010008B7010008A0
:10006000B7010008B7010008B7010008B701000890
:10007000B7010008B7010008B7010008B701000880
:10008000B7010008B7010008B7010008B701000870
:10009000B7010008B7010008B7010008B701000860
:1000A000B7010008B7010008B7010008B701000850
:1000B000B7010008B7010008B7010008B701000840
:1000C000B7010008B7010008B7010008B701000830
:1000D000B7010008B7010008B7010008B701000820
:1000E000B7010008B7010008B7010008B701000810
:1000F000B7010008B7010008B7010008B701000800
:10010000B7010008B7010008B7010008B7010008EF
:10011000B7010008B7010008B7010008B7010008DF
:10012000B7010008B7010008B7010008B7010008CF
:10013000B7010008B7010008B7010008B7010008BF
:10014000B7010008B7010008B7010008B7010008AF
:10015000B7010008B7010008B7010008B70100089F
:10016000B7010008B7010008B7010008B70100088F
:10017000B7010008B7010008B7010008B70100087F
:10018000B7010008B7010008DFF80CD000F018F83C
:10019000004800472D04000800040020064880475E
:1001A00006480047FEE7FEE7FEE7FEE7FEE7FEE75C
:1001B000FEE7FEE7FEE7FEE7B1030008890100085D
:1001C000064C074D06E0E06840F0010394E80700A4
:1001D00098471034AC42F6D3FFF7DAFFA0040008CA
:1001E000B0040008FEE7704701B502E00098401E29
:1001F000009000980028F9D108BD2DE9F0410022B7
:1002000001274FF0030C07FA02F50B682B40AB42B5
:100210002CD1066853000CFA03F4A64306600E794D
:10022000D0F800809E4046EA080606600E79012E4E
:1002300001D0022E12D18668A64386604E79D0F88E
:1002400008809E4046EA080686604668AE434660DF
:1002500045688E799640B6B235434560C568A5437A
:10026000C560CC799C40C3681C43C460521C102AF2
:10027000C9D3BDE8F0814183704701837047FEE731
:100280001CB50121102000F027F84FF460400090C9
:1002900001208DF8040003208DF805006946094807
:1002A000FFF7ABFF4FF480410748FFF7E6FF074C2D
:1002B0004FF400512046FFF7E0FF01212046FFF7F1
:1002C000DCFF1CBD00100240000402400008024098
:1002D000FEE7704770470000054A002903D0116807
:1002E000014311607047116881431160704700003D
:1002F00030380240704700000CB500220192009295
:100300002749086840F4803008604FF4A04308682B
:1003100000F4003000900198401C0190009810B942
:1003200001989842F3D10868800302D5012000901B
:1003300000E000920098012831D11948403002684D
:1003400042F0805202601748026842F44042026064
:100350001348083002680260026842F400420260FA
:10036000026842F4A0520260021F0F4B13600A6839
:1003700042F080720A600A689201FCD50B4A40F292
:1003800005711160016821F003010160016841F00D
:10039000020101600168C1F381010229FAD10CBD9B
:1003A000003802400070004019544007003C0240F1
:1003B00010B51248016841F47001016010480168ED
:1003C00041F0010101600E4A00210832116002680B
:1003D0000C4B1A400260031D0B4A1A60026822F49B
:1003E0008022026006480C300160FFF785FF034958
:1003F0004FF000608039086010BD000088ED00E01B
:1004000000380240FFFFF6FE10300024FEE702E055
:1004100008C8121F08C1002AFAD17047704700208F
:1004200001E001C1121F002AFBD170471949184889
:100430000860FFF725FF184E184F4FF480484FF41F
:10044000C0054FF40059444621463046FFF713FFDC
:100450002846FFF7C9FE21463046FFF70EFF4C46FF
:1004600021463846FFF707FF2846FFF7BDFE214625
:100470003846FFF702FF01213846FFF7FCFE284609
:10048000FFF7B2FE01213846FFF7F7FEDBE7000079
:100490000000010808ED00E00004024000080240EE
:1004A000B004000800000020000400001E04000842
:040000050800018965
:00000001FF
