:020000040800F2
:10000000000400209D010008050300086B020008A1
:1000100003030008E50100082904000800000000AF
:10002000000000000000000000000000290300089C
:10003000E70100080000000007030008B501000800
:10004000B7010008B7010008B7010008B7010008B0
:10005000B7010008B7010008B7010008B7010008A0
:10006000B7010008B7010008B7010008B701000890
:10007000B7010008B7010008B7010008B701000880
:10008000B7010008B7010008B7010008B701000870
:10009000B7010008B7010008B7010008B701000860
:1000A000B7010008B7010008B7010008B701000850
:1000B000B7010008B7010008B7010008B701000840
:1000C000B7010008B7010008B7010008B701000830
:1000D000B7010008B7010008B7010008B701000820
:1000E000B7010008B7010008B7010008B701000810
:1000F000B7010008B7010008B7010008B701000800
:10010000B7010008B7010008B7010008B7010008EF
:10011000B7010008B7010008B7010008B7010008DF
:10012000B7010008B7010008B7010008B7010008CF
:10013000B7010008B7010008B7010008B7010008BF
:10014000B7010008B7010008B7010008B7010008AF
:10015000B7010008B7010008B7010008B70100089F
:10016000B7010008B7010008B7010008B70100088F
:10017000B7010008B7010008B7010008B70100087F
:10018000B7010008B7010008DFF80CD000F018F83C
:100190000048004749040008000400200648804742
:1001A00006480047FEE7FEE7FEE7FEE7FEE7FEE75C
:1001B000FEE7FEE7FEE7FEE7E1030008890100082D
:1001C000064C074D06E0E06840F0010394E80700A4
:1001D00098471034AC42F6D3FFF7DAFF5404000816
:1001E00064040008FEE77047F0B5002201274FF0D5
:1001F000030C07FA02F40B682340A3422DD10468D4
:1002000053000CFA03F5AC4304600C7906689C407B
:10021000344304600E79012E01D0022E12D184687D
:10022000AC4384604C7985689C402C43846045686D
:1002300007FA02F4A543456044688D799540ADB254
:100240002C434460C56856000CFA06F4A543C5600B
:10025000CC799C40C3681C43C460521C102AC8D38C
:10026000F0BD4183704701837047FEE770B5154CC0
:1002700040212046FFF7F7FF80212046FFF7F3FFDC
:10028000A51529462046FFF7EEFF01212046FFF77E
:10029000EAFF0D4E304600F02FF840212046FFF7D0
:1002A000E0FF80212046FFF7DCFF29462046FFF7CC
:1002B000D8FF01212046FFF7D4FF3046BDE870404B
:1002C00000F01AB800080240FFFF4F001CB50121E2
:1002D000042000F019F840F2C110009001208DF8C0
:1002E000040002208DF8050069460248FFF77CFFF4
:1002F0001CBD00000008024000E0401E0028FCD1A8
:100300007047FEE770477047064A29B1D2F83018A7
:100310000143C2F830187047D2F830188143C2F850
:100320003018704700300240704700000020294913
:10033000D1F8002842F48032C1F800284FF4A043DD
:10034000D1F8002802F40032401C0AB99842F7D1D3
:10035000D1F80008800301D5012000E00020012829
:1003600036D101F50061086C40F0805008641A48ED
:10037000026842F44042026088688860886840F4FD
:1003800000408860886840F4A05088601348486046
:10039000086840F080700860A1F50061D1F800089D
:1003A0008001FBD540F20570C1F8000CD1F80808B7
:1003B00020F00300C1F80808D1F8080840F0020056
:1003C000C1F80808D1F80808C0F381000228F9D163
:1003D0007047000000300240007000401954400790
:1003E00010B50E48016841F0010101604FF00001B5
:1003F000816002680A4B02EA03020260094A426015
:10040000026822F480220260C160FFF78FFF4FF084
:10041000E0214FF00060C1F8080D10BD0038024027
:10042000FFFFF6FE10300024FEE702E008C8121FAE
:1004300008C1002AFAD170477047002001E001C1CD
:10044000121F002AFBD17047FFF740FFFFF70EFF96
:10045000FCE7000064040008000000200004000025
:040460003A04000852
:040000050800018965
:00000001FF
