:020000040801F1
:10000000000400209D010108CF0201087F020108C1
:10001000CD020108E5010108090401080000000003
:10002000000000000000000000000000F1020108D4
:10003000E701010800000000D1020108B501010834
:10004000B7010108B7010108B7010108B7010108AC
:10005000B7010108B7010108B7010108B70101089C
:10006000B7010108B7010108B7010108B70101088C
:10007000B7010108B7010108B7010108B70101087C
:10008000B7010108B7010108B7010108B70101086C
:10009000B7010108B7010108B7010108B70101085C
:1000A000B7010108B7010108B7010108B70101084C
:1000B000B7010108B7010108B7010108B70101083C
:1000C000B7010108B7010108B7010108B70101082C
:1000D000B7010108B7010108B7010108B70101081C
:1000E000B7010108B7010108B7010108B70101080C
:1000F000B7010108B7010108B7010108B7010108FC
:10010000B7010108B7010108B7010108B7010108EB
:10011000B7010108B7010108B7010108B7010108DB
:10012000B7010108B7010108B7010108B7010108CB
:10013000B7010108B7010108B7010108B7010108BB
:10014000B7010108B7010108B7010108B7010108AB
:10015000B7010108B7010108B7010108B70101089B
:10016000B7010108B7010108B7010108B70101088B
:10017000B7010108B7010108B7010108B70101087B
:10018000B7010108B7010108DFF80CD000F018F83A
:100190000048004729040108000400200648804761
:1001A00006480047FEE7FEE7FEE7FEE7FEE7FEE75C
:1001B000FEE7FEE7FEE7FEE7AD030108890101085F
:1001C000064C074D06E0E06840F0010394E80700A4
:1001D00098471034AC42F6D3FFF7DAFF98040108D1
:1001E000A8040108FEE7704701B502E00098401E30
:1001F000009000980028F9D108BD2DE9F0410022B7
:1002000001274FF0030C07FA02F50B682B40AB42B5
:100210002CD1066853000CFA03F4A64306600E794D
:10022000D0F800809E4046EA080606600E79012E4E
:1002300001D0022E12D18668A64386604E79D0F88E
:1002400008809E4046EA080686604668AE434660DF
:1002500045688E799640B6B235434560C568A5437A
:10026000C560CC799C40C3681C43C460521C102AF2
:10027000C9D3BDE8F0814183704701837047FEE731
:100280001CB50121102000F025F84FF460400090CB
:1002900001208DF8040003208DF805000A4C694602
:1002A0002046FFF7AAFF4FF400512046FFF7E5FF75
:1002B0004FF480412046FFF7E0FF4FF40041204615
:1002C000FFF7DBFF1CBD000000100240FEE7704797
:1002D00070470000054A002903D0116801431160EE
:1002E0007047116881431160704700003038024048
:1002F000704700000CB5002201920092274908685F
:1003000040F4803008604FF4A043086800F40030E7
:1003100000900198401C0190009810B901989842F3
:10032000F3D10868800302D50120009000E000921C
:100330000098012831D119484030026842F08052BB
:1003400002601748026842F44042026013480830D5
:1003500002680260026842F400420260026842F4ED
:10036000A0520260021F0F4B13600A6842F08072B5
:100370000A600A689201FCD50B4A40F205711160CF
:10038000016821F003010160016841F00201016090
:100390000168C1F381010229FAD10CBD0038024085
:1003A0000070004019544007003C024010B512484C
:1003B000016841F4700101601048016841F00101D9
:1003C00001600E4A00210832116002680C4B1A408D
:1003D0000260031D0B4A1A60026822F48022026048
:1003E00006480C300160FFF785FF03494FF00060BD
:1003F0008039086010BD000088ED00E00038024040
:10040000FFFFF6FE10300024FEE702E008C8121FCE
:1004100008C1002AFAD170477047002001E001C1ED
:10042000121F002AFBD17047194918480860FFF7CE
:1004300027FF184C4FF400584FF4C0054FF4804983
:100440004FF40047464631462046FFF714FF284642
:10045000FFF7CAFE31462046FFF70FFF4E463146F2
:100460002046FFF708FF2846FFF7BEFE314620462C
:10047000FFF703FF39462046FFF7FDFE2846FFF74A
:10048000B3FE39462046FFF7F8FEDBE7000001081F
:1004900008ED00E000100240A80401080000002060
:0804A000000400001A04010829
:040000050801018964
:00000001FF
