:020000040800F2
:1000000020C3012031030008BB1600085915000861
:10001000B9160008A7090008011C0008000000002C
:10002000000000000000000000000000790200084D
:10003000950A000800000000CD0200086D190008B4
:100040004B0300084B0300084B0300084B03000858
:100050004B0300084B0300084B0300084B03000848
:100060004B0300084B0300084B0300084B03000838
:100070004B0300084B0300084B0300084B03000828
:100080004B0300084B0300084B0300084B03000818
:100090004B0300084B0300084B0300084B03000808
:1000A0004B0300084B0300084B0300084B030008F8
:1000B0004B0300084B0300084B0300084B030008E8
:1000C0004B0300084B0300084B0300084B030008D8
:1000D0004B030008311A00084B0300084B030008CB
:1000E0004B0300084B0300084B0300084B030008B8
:1000F0004B0300084B0300084B0300084B030008A8
:100100004B0300084B0300084B0300084B03000897
:100110004B0300084B030008DD1900084B030008DF
:100120004B0300084B0300084B0300084B03000877
:100130004B0300082D0C00084B0300084B0300087C
:100140004B0300084B0300084B0300084B03000857
:100150004B0300084B0300084B0300084B03000847
:100160004B0300084B0300084B0300084B03000837
:100170004B0300084B0300084B0300084B03000827
:100180004B0300084B03000800F002F800F064F88D
:100190000AA090E8000C82448344AAF10107DA45E2
:1001A00001D100F059F8AFF2090EBAE80F0013F0D0
:1001B000010F18BFFB1A43F0010318474CE8000079
:1001C0006CE800000A444FF0000C10F8013B13F0FB
:1001D000070408BF10F8014B1D1108BF10F8015BA0
:1001E000641E05D010F8016B641E01F8016BF9D193
:1001F00013F0080F1EBF10F8014BAD1C0C1B09D1EA
:100200006D1E58BF01F801CBFAD505E014F8016B5B
:1002100001F8016B6D1EF9D59142D6D370470000ED
:100220000023002400250026103A28BF78C1FBD8FF
:10023000520728BF30C148BF0B607047642900F0E7
:10024000CF80732900F03483002070471FB50EF073
:10025000C3FA1FBD10B510BD00F07AFB1146FFF7C1
:10026000F5FF05F0B1F900F098FB03B4FFF7F2FFDA
:1002700003BC01F0CDFC00002A4B19680868B0E807
:10028000F04F80F30988BFF36F8F4FF0000080F3C9
:10029000118870470000000006480068006880F37D
:1002A000088862B661B6BFF34F8FBFF36F8F00DF70
:1002B00000BF00BF08ED00E0DFF80C00016841F46A
:1002C00070010160704700BF88ED00E0EFF3098026
:1002D000BFF36F8F134B1A681EF0100F08BF20ED8D
:1002E000108A20E9F04F106008B44FF0500080F3FE
:1002F0001188BFF34F8FBFF36F8F0DF09DFB4FF051
:10030000000080F3118808BC19680868B0E8F04F55
:100310001EF0100F08BFB0EC108A80F30988BFF3FD
:100320006F8F7047A8000020EFF305807047000032
:100330000948804709480047FEE7FEE7FEE7FEE779
:10034000FEE7FEE7FEE7FEE7FEE7FEE704480549B5
:10035000054A064B70470000811900088901000812
:1003600020BD012020C3012020BF012020BF01208B
:10037000704700000FB4044910B503AA029800F0BA
:100380009BFA10BC5DF814FB6400002070B50C46AD
:100390000546012A05D02878800600D5EA690023A1
:1003A00002E0012305E05B1C934202D2E05C0028DE
:1003B000F9D1A869E618C01AA861286A1844286209
:1003C0002846AFF3008004E0D5E9012114F8010BC1
:1003D0009047B442F8D32846AFF3008070BD0000C8
:1003E0002DE9F0410646002410687529314616A50E
:1003F00010D0AFF30080002802DA404213A507E0D6
:1004000031688A0701D512A502E0490704D511A574
:10041000012401E0AFF3008000210A2206F1240745
:1004200009E0B0FBF2FCB0FBF2F302FB1C00303041
:1004300078541846491C0028F3D123462A463046F2
:10044000BDE8F04100F0B1B9000000002D0000004F
:100450002B000000200000002DE9F05F89460446D3
:100460004FF0000ADFF874B1FB44C0F820A020462A
:10047000E1688847002874D0252806D0D4E90121F6
:100480009047206A401C2062F1E700265F46204624
:10049000E16888472028054607DB312D05D2781909
:1004A00010F8200C08B10643F1E7B00701D526F09B
:1004B0000406C4F81CA00027C4F818A02A2D09D0EF
:1004C000284601F09EFB38B304EB8708303DC8F89E
:1004D000185019E059F8041B204604EB870291617B
:1004E000E1688847012F054618D1E069002820DA25
:1004F00026F020061DE0D8F8180000EB800005EB80
:1005000040003038C8F818002046E16888470546A2
:1005100001F077FB0028EED1012F0AD02E2D08D153
:100520002046E16888477F1C0546022F46F02006DA
:10053000C4DBA069002803DA404246F00106A0614E
:10054000F00701D026F010066C2D0BD0682D09D0D5
:100550004C2D39D06A2D35D0742D35D07A2D33D02D
:1005600016E038E0E1682F4620468847B842054645
:1005700009D16C2F26D04FF48060E16806432046F5
:100580008847054604E06C2F1AD04FF4807006436C
:100590000DB3A5F14100192802D8203546F40066B4
:1005A0004A462946204626604E46FFF747FE80B160
:1005B00001280BD0F61D26F0070000F1080956E7C8
:1005C0004020E4E78020D8E70020D6E706F10409C0
:1005D0004DE7284652E7206ABDE8F09F40E400005E
:1005E00040EA010310B59B070FD1042A0DD310C8B0
:1005F00008C9121F9C42F8D020BA19BA884201D902
:10060000012010BD4FF0FF3010BD1AB1D30703D049
:10061000521C07E0002010BD10F8013B11F8014BFF
:100620001B1B07D110F8013B11F8014B1B1B01D11B
:10063000921EF1D1184610BD10B5431C02E010F80F
:10064000011B71B18107FAD14FF0013202C88C1A37
:100650008C4314EAC211F9D0C01A0A0603D0C01E96
:1006600010BDC01A10BD0A0401D0801E10BD0902C1
:10067000FCD0401E10BD032A40F2308010F0030C65
:1006800000F0158011F8013BBCF1020F624498BFE5
:1006900011F801CB00F8013B38BF11F8013BA2F182
:1006A000040298BF00F801CB38BF00F8013B11F0FD
:1006B000030300F01381083AC0F0088051F8043BAE
:1006C000083A51F804CBA0E80810F5E7121D5CBF0A
:1006D00051F8043B40F8043BAFF30080D20724BF3D
:1006E00011F8013B11F801CB48BF11F8012B24BFD1
:1006F00000F8013B00F801CB48BF00F8012B704720
:1007000002F0FF0343EA032242EA024200F002B889
:100710004FF000020429C0F0128010F0030C00F02A
:100720001B80CCF1040CBCF1020F18BF00F8012BA8
:10073000A8BF20F8022BA1EB0C0100F00DB85FEA76
:10074000C17C24BF00F8012B00F8012B48BF00F842
:10075000012B70474FF0000200B5134694469646B1
:10076000203922BFA0E80C50A0E80C50B1F12001C4
:10077000BFF4F7AF090728BFA0E80C5048BF0CC072
:100780005DF804EB890028BF40F8042B08BF7047D0
:1007900048BF20F8022B11F0804F18BF00F8012B42
:1007A000704770477047704770472DE9F0470D4616
:1007B00099469246044600F124080168880604D54B
:1007C000E06921F01001216000E00120A84201DD74
:1007D000471B00E00027A1697A1902EB0900081AFB
:1007E000A0612078C00602D42046AFF30080002626
:1007F00008E0D4E901211AF806009047206A401C5D
:10080000761C20624E45F4DB2078C0060AD52046CF
:10081000AFF3008006E0D4E9012130209047206A40
:10082000401C2062381EA7F10107F4DC07E0D4E980
:10083000012118F805009047206A401C2062281EFC
:10084000A5F10105F3DC2046AFF300802078000617
:1008500002D50220BDE8F0870120FBE701694A1CB0
:1008600002610878704700B58FB0CDE901310021F1
:10087000059105497944CDE9031011466846FFF713
:10088000EBFD0FB000BD0000E5FFFFFF10B54369B1
:1008900013B1AFF3008001E0FFF778FD012010BD38
:1008A000127800F124010A7000224A700122EDE75B
:1008B00011684FF0FF32E9E7074B70B50D467B44F6
:1008C000FFF7D1FF0446284600F03EF810B14FF084
:1008D000FF3070BD204670BD5735000010B5203A7E
:1008E000C0F00B80B1E81850203AA0E81850B1E8E9
:1008F0001850A0E81850BFF4F5AF5FEA027C24BF9F
:10090000B1E81850A0E8185044BF18C918C0BDE895
:1009100010405FEA827C24BF51F8043B40F8043B5E
:1009200008BF7047D20728BF31F8023B48BF11F813
:10093000012B28BF20F8023B48BF00F8012B70476D
:1009400000487047C0BC0120007B00F08000704769
:100950007546FFF7F5FFAE4605006946534620F0A1
:100960000700854618B020B5FFF7F0FCBDE8204031
:100970004FF000064FF000074FF000084FF0000B5B
:1009800021F00701AC46ACE8C009ACE8C009ACE80E
:10099000C009ACE8C0098D4670470446AFF300803B
:1009A0002046FFF762FCFEE73EB50121072000F07C
:1009B000C1FE0121880300F0D5FE012000F06AFF8E
:1009C0008620009003208DF8050002208DF8040099
:1009D00000242D4D8DF806408DF8074069462846C5
:1009E00000F007FD0B220121284600F03EFD0B22FE
:1009F0000221284600F039FD0B220721284600F08D
:100A000034FD3220214D00906946284600F0F1FC6B
:100A10000B220121284600F028FD0B220421284644
:100A200000F023FD0B220521284600F01EFD4FF4A7
:100A30006050174D00906946284600F0DAFC0B2202
:100A40001146284600F011FD0B220C21284600F02B
:100A50000CFD0B220D21284600F007FD3D208DF8EE
:100A6000080006208DF809008DF80A4001208DF855
:100A70000B0002A800F022FE00F04EFA08B10020A0
:100A80003EBD01203EBD00000000024000080240C3
:100A900000040240704700000149486170470000AF
:100AA00000900240044A0029D16901D0014300E0CE
:100AB0008143D16170470000009002400549002841
:100AC000886902D040F0020001E020F00200886155
:100AD0007047000000900240F0B5124F00234FF025
:100AE000004C44F2F45E561E786013E000EB4314B1
:100AF000C4F800C0C3EBC31505EB450501EB850544
:100B0000C4E901E5B34203D204F12005E56000E049
:100B1000E0605B1C9342E9D30349C8600348B860B6
:100B2000F0BD00007800002000900240C8020020C4
:100B300005490028886902D040F4005001E020F403
:100B4000005088617047000000900240F0B50F4CE3
:100B500000234FF48017561E206011E000EB431471
:100B60002760C3EBC31505EB450501EB8505A560C3
:100B7000B34203D204F12005E56000E0E0605B1CB5
:100B80009342EBD302490861F0BD000078000020D9
:100B90000090024002680A430260704710B50121CC
:100BA0004C06204600F0D2FD2046BDE81040002152
:100BB00000F0CCBD01B581B001980090002801D0B3
:100BC000401EFAE70CBD000038B5074CA06940F4A0
:100BD0008010A061A06900904FF6FF70FFF7EAFF58
:100BE0000098A06138BD00000090024001480068F4
:100BF000806870477800002002680021002A08DB26
:100C00000268120405D40268D20502D50068C0F358
:100C10000D41084670470000034900200968C907D4
:100C200000D00120704700000090024010B5094C30
:100C300001E004F097FC2068FFF7DEFF0028F8D100
:100C40004020FFF729FFBDE810404FF48030FFF748
:100C500023BF00007C0000202DE9F04786B000276C
:100C6000044601200097974ECDE9000730698A4677
:100C700020F01C0502A800F081FD93490398934AD7
:100C80000144914202D245F0080516E09049914A8C
:100C90000144914202D245F00C050EE08E498F4A84
:100CA0000144914209D38E4908448E49884202D2B8
:100CB00045F0040501E045F0100535614FF40042B0
:100CC0000021504600F0B0FA4FF400684FF480491C
:100CD000A0B18548FFF76EFF206898B3834D019857
:100CE0000121401C0190504600F0C6F9400702D493
:100CF0000198A842F3D30198A84201D100973CE0A3
:100D00004FF4805200215046019700F08DFA00B94F
:100D1000009701980121401C0190504600F0ACF969
:100D2000800602D40198A842F3D30198A842E5D0E6
:100D30001F215046019700F09FF9C10603D5C4F862
:100D4000208001E007E02762400701D5676112E0DB
:100D5000C4F814900FE0206A6169C00840EA5100AD
:100D600082B20021504600F05FFA00B900976FF0A0
:100D70007F40FFF71FFF009818B9C4F81490C4F81B
:100D8000208030685A490840D4E901121143E268D2
:100D900054F8103F1A43114362681143A26811438B
:100DA000E26811432269114354F8142F1143626819
:100DB0001143A2681143E2681143226911430143C0
:100DC000316035684FF6FF773846FFF7F3FE356040
:100DD000F4E905010843D4E90212114308432169EB
:100DE000084361690843A1690843E16908437060E9
:100DF00075683846FFF7DEFE7560206AB060606A8D
:100E0000F060B0694FF641710840D4E90B1211430C
:100E1000238D626B42EA03421143A26B1143E26BE2
:100E200011430143B161B5693846FFF7C3FEB561AF
:100E3000D4E910010843F061F5693846FFF7BAFEBE
:100E4000F5612C4DA8692C490840D4E912121143D0
:100E5000D4E914231A431143A26D1143E26D1143E7
:100E6000226E1143626E1143A26E11430143A961C8
:100E7000AE693846FFF79EFEAE61D4E91B01084318
:100E8000616F54F8782F11430843616840EA81008C
:100E9000A168084340F4000028602C683846FFF73A
:100EA00089FE2C60286840F0800028602C68384655
:100EB000FFF780FE2C600098012800D0002006B0CB
:100EC000BDE8F0870080024000D3CEFEC0E1E40020
:100ED00040F1E9FD40787D0100796CFC005A620226
:100EE000001F0AFA80F0FA02FFFF0F00FFFF040064
:100EF0000F8120FF00900240233FDEF8054B8A88D7
:100F0000184402640A78D1F8011042EA01214164D0
:100F1000704700000080024010B5B0B001214FF0D2
:100F2000606000F007FCFFF739FE00F0FDF8FFF706
:100F300073FE0128FBD0684600F00FF901200090F5
:100F400000204FF40071CDE90A10090407901190B8
:100F5000CDE920010E90149013900A111590259060
:100F6000269023920420CDE9280180032A90800155
:100F70002B9040122C9040002E9001216846FFF7E4
:100F80006BFEC4B2012C03D101210348FFF78AFD97
:100F900030B0204610BD00004000010038B50021EF
:100FA000094C00910028206802D040F0040001E0C4
:100FB00020F004002060206800904FF6FF70FFF7DB
:100FC000F9FD0098206038BD0080024038B500214E
:100FD000094C00910028206802D040F0080001E090
:100FE00020F008002060206800904FF6FF70FFF7A7
:100FF000E1FD0098206038BD0080024010B5094C2A
:101000000020216804F0C4FF0020616804F0C0FFE4
:101010000020A16804F0BCFFE168BDE8104000209A
:1010200004F0B6BF4C00002070B5A021002004F0F1
:10103000BBFF104CA0212060002004F0B5FF41F65A
:10104000C45560602946002004F0AEFFA060294628
:10105000002004F0A9FFE060216831B1616821B18E
:10106000A16811B108B1002070BDFFF7C7FF0120D2
:1010700070BD00004C00002018B500220092124AFA
:1010800013694FF6FF7403F01C0304EAC0201843F1
:101090004FF4F86303EA8111014321F0020040F0AC
:1010A0000100106109490098401C00901069C007B8
:1010B00002D000988842F6D30098884201D10020DF
:1010C00018BD506980B218BD00800240FFFF0400C7
:1010D00070B5134C00231A4621680D68002D0BDAF9
:1010E000104916464B691B0602D580234B618E6062
:1010F00002604260826070BD0D682D040AD40D68E4
:10110000ED0507D50D68AD0504D50A68C2F30D439A
:101110008A681B1FCD6825600360C0E9012170BD8E
:101120007C000020009002400248016841F001016B
:10113000016070470090024010B50120FFF746FFA4
:101140000120FFF72BFFFFF73FFD0120FFF7F0FC29
:10115000BDE810400120FFF7B1BC01210160002172
:10116000416081604FF48042C160C0E90412D21036
:101170008161C0E9071241628162C162016341631A
:1011800040228163C0E90F122022C0E91121C1640D
:101190000165416581658022C165C0E918128166DB
:1011A000C16601674167D2048167C0E91F1252100E
:1011B000C0E921211311C0E92331C0F89410C0F80F
:1011C0009810C0F89C10C0E928125212C0F8A8204C
:1011D0009201C0F8AC205212C0E92C21C0F8B8101E
:1011E000704700000E4A11680B68002B01DA0020DE
:1011F0007047C0F30C004860086840F04050086039
:10120000086840F000400860064843695B0703D562
:101210000423436100234360C868106001207047C5
:10122000780000200090024038B500230093114B55
:101230001C694FF6FF7504F01C0405EAC02020432A
:101240004FF4F86404EA8111014341F003005A614C
:10125000186109490098401C00901869C00702D025
:1012600000988842F6D30098884201D1002038BD0A
:10127000012038BD00800240FFFF0400094810B57E
:10128000006810F0FF0F09D05021EFF3118081F3B7
:101290001188BFF34F8FBFF36F8F10BD0CF098F81C
:1012A000002010BD04ED00E00449096811F0FF0FB3
:1012B00002D080F3118870470CF0C6B804ED00E04E
:1012C00001490860704700000C3C024070B50646BA
:1012D000002529B1012927D0022928D04FF44075D3
:1012E00000F078F809281ED1124C206820F44070D4
:1012F0002060206828432060206820F0F8002060EB
:10130000206846F0020108432060206840F48030E5
:10131000206000F05FF8216821F00201216021685F
:1013200021F0F801216070BD4FF48075D8E74FF4CB
:101330000075D5E7103C02400D4909200A68D20328
:1013400001D5012070470A68D20601D506207047F2
:101350000A68D20501D5022070470A6812F0EF0F23
:1013600001D00720704709688907FBD5082070471E
:101370000C3C024070B50D46064600F02BF80928DB
:1013800013D10A4C206820F440702060206840F49B
:1013900000702060206840F001002060356000F09F
:1013A00019F8216821F00101216070BD103C024054
:1013B00005480068002805DA034804490C38016034
:1013C0000349016070470000103C0240230167455B
:1013D000AB89EFCD08B509208DF80000FFF7ACFF11
:1013E0008DF800009DF800000128F7D09DF800005E
:1013F00008BDF0B5002201274FF0030C0B6807FA77
:1014000002F52B40AB422CD1066853000CFA03F4D2
:10141000A64306600E79D0F800E09E4046EA0E062C
:1014200006600E79012E01D0022E12D18668A643E5
:1014300086604E79D0F808E09E4046EA0E06866047
:101440004668AE43466045688E799640B6B23543ED
:101450004560C568A543C560CC799C40C3681C4302
:10146000C460521C102AC9D3F0BD4B07DB0E9A4052
:10147000C90810B500EB8100016A0F249C40A1430C
:101480000162016A1143016210BD02460020126927
:101490000A4200D0012070470183704701460020B6
:1014A000A1F100624FF480439A4204D320480844DB
:1014B000984201D2082070471E480844984201D241
:1014C000102070471C480844984201D218207047E9
:1014D0001A480844B0F5803F01D2202070471848D0
:1014E0004FF400320844904201D22820704715483A
:1014F0000844904201D2302070471348084490427B
:1015000001D23820704711480844904201D240204F
:1015100070470F480844904201D2482070470D4858
:101520000844904201D25020704758207047000074
:1015300000C0FFF70080FFF70040FFF70000FFF753
:101540000000FEF70000FCF70000FAF70000F8F7D3
:101550000000F6F70000F4F7FEE700001CB50121DB
:10156000112000F0E7F84FF4E050009000208DF8D3
:10157000040003208DF8050001248DF8074069461A
:101580000548FFF736FF02208DF8070000946946F2
:101590000248FFF72EFF1CBD001002400000024071
:1015A0002DE9F0470126314CDFF8C4A0314DB702D8
:1015B0004FF400684FF4805908B1267001E020789C
:1015C000A0B139462846FFF760FFB0B14146284632
:1015D000FFF75BFF88B149462846FFF756FF60B129
:1015E00001215046FFF751FF012806D03946284611
:1015F000FFF74BFF012824D035E00A2000F058FB0C
:101600000020207039462846FFF73FFF80B1414651
:101610002846FFF73AFF70B149462846FFF735FFE5
:1016200058B101215046FFF730FF012807D01AE0DA
:101630000120BDE8F0870220FBE70320F9E7042042
:10164000F7E741462846FFF720FF01280BD149461E
:101650002846FFF71AFF012805D101215046FFF760
:1016600014FF00B926700020E3E7000048000020C6
:1016700000000240001002407CB50121102000F063
:1016800059F801208DF8040000228DF8062003216E
:101690008DF80510074D4FF4C0448DF807000094F5
:1016A00069462846FFF7A5FE21462846FFF7F4FEC7
:1016B0007CBD000000100240FEE7704730B50F23EC
:1016C000C27801780125FAB1144A126801F1E021CB
:1016D00002F4E062C2F5E062C2F30722C2F1040440
:1016E000D3404278A24084781C401443220181F800
:1016F0000024007800F01F018D404009800000F1B7
:10170000E020C0F8005130BD01F01F0085404809BD
:10171000800000F1E020C0F8805130BD0CED00E009
:101720000249084302490860704700000000FA05BA
:101730000CED00E0044A0029116801D0014300E0EB
:10174000814311607047000030380240044A00298C
:10175000116801D0014300E081431160704700002F
:1017600010380240044A0029116801D0014300E00A
:1017700081431160704700004438024070B5204B2F
:101780001968204C11F00C0104D01F4E042903D01D
:10179000082903D004601BE0066019E0184A121FF4
:1017A0001168C1F38055116801F03F0115B1B6FB16
:1017B000F1F101E0B4FBF1F114681268C4F388148C
:1017C0006143C2F30142521C5200B1FBF2F10160CD
:1017D00019680F2202EA11110C4A545C0168E140B9
:1017E00041601C68072505EA9424145D21FA04F47D
:1017F00084601B6805EA5333D25CD140C16070BD80
:10180000083802400024F40040787D016800002080
:1018100010B5FFF743FE044608E002212046FFF71B
:1018200055FD092801D0012010BD0834582CF4D9E9
:10183000002010BD10B5FFF7BBFDBDE81040F32040
:10184000FFF73EBD2DE9F04117460E460546002440
:10185000DFF83C8015E056F824102868FFF78AFD71
:10186000092802D00120BDE8F081286856F824102C
:101870000068884201D00220F5E72868001D286032
:10188000641CBC4202D229684145E4D90020EAE741
:10189000FBFF0F080149C1F8DC0070470000274238
:1018A0000CB50022274900920192086840F480306C
:1018B00008604FF4A043086800F4003001900098DD
:1018C000401C0090019810B900989842F3D1086824
:1018D000800334D5012001901A484030026842F05C
:1018E000805202601848026842F440420260154883
:1018F000083002680260026842F400420260026836
:1019000042F4A0520260031F104A1A600A6842F0B3
:1019100080720A600A689201FCD50D4940F2057296
:101920000A60016821F003010160016841F00201D1
:1019300001600168C1F381010229FAD10CBD019255
:101940000CBD0000003802400070004019544007F0
:10195000003C02404FF0E0210428086903D020F049
:1019600004000861704740F00400FAE710B50CF07D
:10197000D7FC012803D0BDE810400CF033B910BDEE
:10198000124810B5016841F4700101601048016807
:1019900041F0010101600E4A002108321160026825
:1019A0000C4B1A400260031D0B4A1A60026822F4B5
:1019B0008022026006480C300160FFF771FF034986
:1019C0004FF000608039086010BD000088ED00E035
:1019D00000380240FFFFF6FE1030002410B50A4C1C
:1019E0000121204600F017F800280BD007490A68AB
:1019F000521C0A6000F01CF92046BDE8104001218D
:101A000000F006B810BD0000001000402C000020BF
:101A1000C9430182704702460020138A92890B4213
:101A200002EA010202D0002A00D001207047000023
:101A300038B51F4D40F22551284600F050F81D4C96
:101A4000D8B1284600F0D8F8C1B22088020417D4D3
:101A500043044FF0000204D50A290DD140F40040A0
:101A600023E00D291FD0C0F30D03134D401C80B29D
:101A7000E9542080C72800D922802088000411D58D
:101A80000E48006800280DD069460CF075FB0098E0
:101A9000002807D00A494FF080500860BFF34F8FED
:101AA000BFF36F8F38BD40F480402080E5E7000031
:101AB0000010014060000020000200200C00002007
:101AC00004ED00E0C943018070470029818902D0FC
:101AD00041F4005101E021F400518181704770B55B
:101AE00001F01F0501260024C1F3421306FA05F296
:101AF000012B0FD0022B0FD0838A4FEA11210088CF
:101B0000134206FA01F600EA060001D000B10124F2
:101B1000204670BD8389F0E7038AEEE710B5C1F374
:101B2000421301F01F040121A140012B07D0022B19
:101B300007D01430002A026805D00A4304E00C30B4
:101B4000F8E71030F6E78A43026010BD7FB504461F
:101B5000008A0D46C98820F4405001432182A089A3
:101B600041F20C618843A9882A8911436A8902439A
:101B70001143A181A08A20F44071A8890843A08262
:101B80006846FFF7FBFD1A48844202D01948844298
:101B900001D1039800E00298A189090400EBC0017B
:101BA00001EB0010296801D5490000E08900B0FB75
:101BB000F1F06422B0FBF2F109010B096FF0180596
:101BC0006B4300EB8300A3891D044FF0320306D55D
:101BD00003EBC000B0FBF2F000F0070005E003EB00
:101BE0000010B0FBF2F000F00F00084320817FBD31
:101BF00000100140001401408088C0F308007047C5
:101C0000FEE730380A2801D20120704700207047D3
:101C10007047000010B501F03DFFBDE81040002204
:101C2000024941F2883007F009BA0000151C00088B
:101C30001048416811B14168491E4160816811B185
:101C40008168491E8160C16811B1C168491EC160C7
:101C5000016911B10169491E0161416911B141690F
:101C6000491E41618169002902D08169491E816153
:101C7000704700002C00002010B504460420FFF738
:101C800069FE0A484FF47A71047014FB01F10122D5
:101C900042804FF0E020026942F00202026141619D
:101CA000016941F00101016110BD00005C000020EC
:101CB00070B504460CF034FB01280CD0094D68883F
:101CC000844203D3B4FBF0F00BF000FD6888B4FB52
:101CD000F0F100FB11444FF47A706043BDE87040AE
:101CE00000F002B85C00002070B54FF0E025002144
:101CF0006C69094AAB6912785043AA699A42FCD0D0
:101D000002D2A3EB020302E0A4EB0206334419441F
:101D100013468142F1D370BD5C00002070B50546CA
:101D2000C0EBC500324900EB800001EBC004042D7C
:101D300006D330A340F2812237A13EA0FEF71AFB62
:101D40002078002842D0C5EBC501294B01EB810169
:101D500003EBC103002601220C3301280CD002281A
:101D600011D003283FD0BDE8704022A340F2C52225
:101D70003BA130A0FEF7FEBA022020706670A27070
:101D80003046E6700DE0A078401E10F0FF00A07015
:101D90001CD1E078401CC0B2E070042807D0A070CD
:101DA00060782A46BDE87040194600F063B9607853
:101DB0000146401C02280AD2314D05EB81010D1D60
:101DC00005D0496819B16070A270E67070BDD4F892
:101DD000105125B100211846D4F81421A8472670C7
:101DE000C4F8106170BDA068401EA060F7D070BD3F
:101DF00044B501202E2E5C4C5749505C6C776970BD
:101E00002D312E342E315C7372635C636F72655CAE
:101E1000646E732E63000000617272617920696ED6
:101E2000646578206F7574206F6620626F756E64CC
:101E300073000000417373657274696F6E20222510
:101E40007322206661696C6564206174206C696E20
:101E50006520256420696E2025730D0A00000000AE
:101E6000756E6B6E6F776E20646E735F7461626CFB
:101E70006520656E7472792073746174653A000030
:101E80005C01002038B50F480F4C20F00300A06023
:101E90000EA003F05FF800906068002811D10BF0ED
:101EA00073F9606000280CD000220C490AF0CEFFC4
:101EB00000220B4960680BF074F96946002000F0BD
:101EC000ABF938BDA7B90120500100203230382EBF
:101ED00036372E3232322E323232000098E8000885
:101EE000091F0008032210F8011BB2EB911F08D054
:101EF00002E0491EC9B2401C0029FAD1017800292C
:101F0000F1D1401C704700002DE9FE4F16461289A2
:101F1000B2F5007F70D81A2A6ED3534C0023304696
:101F2000A16805F011FB3189884265D1A768A046F8
:101F3000388803F0FBFA04285ED2C0EBC0004B499E
:101F400000EB800001EBC0042078022854D14FF050
:101F5000030984F80090F87800F00F006071B888E9
:101F600003F0E4FA8346F88803F0E0FA0546B8780F
:101F70004FF0000A000664D56079E0BBBBF1010FA9
:101F80005FD1D8F8080004F10C010C308B460346F1
:101F90004F4610F8012BB7EB921F10D009E091F8D3
:101FA00000C090F80080C4454BD1521E401CD2B2F4
:101FB000491C002AF3D10278491C002AE9D11846AD
:101FC000FFF790FF4FF480784FF48069001D36E0F2
:101FD000FFF788FF01680091416807460191008979
:101FE000ADF80800BDF80000404520D1BDF8020062
:101FF00040451CD101E024E030E0BDF80800484530
:1020000015D1019803F0A9FA1949A060884200D9B6
:10201000A160D7F80A00C4F80C01D4F81031EBB174
:1020200004F586715846D4F81421984716E0BDF897
:10203000080003F07BFA6D1E3844ADB20A30002D63
:10204000C6D1D4F810312BB1002104F10C00D4F822
:102050001421984784F800A0C4F810A13046BDE8C8
:10206000FE4F05F0FBBA00005001002044B50120EE
:10207000803A09002DE9F0471746884604460228B1
:1020800006D33AA34FF40F7241A147A0FEF772F9AD
:10209000504810EB840602D050F8240030B933A326
:1020A00040F23D224CA140A0FEF764F900224FF41B
:1020B0008871104604F098FE050051D0286830B1B0
:1020C0002AA340F243224DA137A0FEF753F96C68D2
:1020D0004FF000093846C4F80090C4F80490C4F8E2
:1020E000089003F023FA24F8020B012004F8020BF5
:1020F000020224F8082BA8F101082346641C0020E2
:1021000003E0401C04F8011BC0B218F8011F2E297F
:1021100001D00029F5D1187098F800000028ECD102
:1021200004F8019B62F30F0762F31F472760A8883A
:10213000201A001D81B2284605F0D2FB254C3146FD
:102140000C3C352260680AF011FF324635232946DF
:1021500060680BF03FF80446284605F07FFA01E07E
:102160004FF0FF342046BDE8F08700002E2E5C4C77
:102170005749505C6C7769702D312E342E315C7369
:1021800072635C636F72655C646E732E6300000043
:10219000646E7320736572766572206F7574206F3C
:1021A0006620617272617900417373657274696F40
:1021B0006E2022257322206661696C65642061743B
:1021C000206C696E6520256420696E2025730D0AD8
:1021D000000000005C010020646E7320736572765D
:1021E000657220686173206E6F20495020616464BD
:1021F0007265737320736574000000007062756609
:10220000206D75737420626520696E206F6E652085
:10221000706965636500000002280CD2064A5268A6
:10222000002A08D0002906D00968002903D0024AF4
:102230000C3242F8201070475001002010B500F019
:102240000BF8BDE81040002202494FF47A7006F006
:10225000F5BE00003D220008064810B54068002881
:1022600007D000242046FFF759FD641CE4B2042C7B
:10227000F8D310BD5001002010B504460068417825
:1022800000290DD002290BD00078102806D01CA3FD
:1022900040F2B15224A12CA0FEF76CF8FB2014E010
:1022A000426812B10278102A01D0FA200DE0227A99
:1022B000032A01D0022907D0D10701D003F0F8FF8B
:1022C0002068816A51B907E0F32020712068BDE8D9
:1022D00010400C3006F08ABE406A30B108A340F2CC
:1022E000BC5224A118A0FEF745F8216804204870CC
:1022F000206884622068BDE8104000F049B8000002
:102300002E2E5C4C5749505C6C7769702D312E3401
:102310002E315C7372635C6170695C6170695F6DC2
:1023200073672E63000000006D73672D3E636F6E50
:102330006E2D3E74797065203D3D204E4554434FCF
:102340004E4E5F5443500000417373657274696F61
:102350006E2022257322206661696C656420617499
:10236000206C696E6520256420696E2025730D0A36
:1023700000000000616C7265616479207772697495
:10238000696E67206F7220636C6F73696E670000FF
:102390002DE9F041040006D153A34FF43C725CA137
:1023A0005FA0FDF7E7FF2078102806D04EA340F28B
:1023B000F12266A15AA0FDF7DDFF6078042806D05F
:1023C00049A340F2F22269A155A0FDF7D3FF60684E
:1023D00030B945A340F2F3226DA151A0FDF7CAFF29
:1023E000A06A30B940A34FF43D726EA14CA0FDF736
:1023F000C1FFA06A007A00F0010700F0020603287E
:1024000024D000251DB10021606807F0A9F860689C
:10241000017E01291CD037B1002109F0D9F9002132
:10242000606807F01EF81EB10021606809F002FC28
:102430009DB104220021606808F0EEFB0021606875
:1024400007F0D4FC606807F0C1F90BE00125D9E77B
:10245000002107F006F8002DF4D1324639466068B5
:1024600009F034FC20B16068007E012821D027E00B
:10247000A16A00200871A062607035B16060E36AF3
:102480001BB100220421204698472FB1E36A1BB1FB
:1024900000221146204698472EB1E36A1BB1002264
:1024A00002212046984704F10C00BDE8F04106F0F7
:1024B0009DBD0DA340F22D3241A119A0FDF75AFF99
:1024C0004849606809F0B6FB04224749606808F093
:1024D000A3FB4649606807F089FC21466068BDE8B7
:1024E000F04107F03DB800002E2E5C4C5749505C7F
:1024F0006C7769702D312E342E315C7372635C61A0
:1025000070695C6170695F6D73672E630000000025
:10251000696E76616C696420636F6E6E0000000006
:10252000417373657274696F6E2022257322206671
:1025300061696C6564206174206C696E6520256436
:1025400020696E2025730D0A00000000746869730D
:1025500020697320666F7220746370206E657463E7
:102560006F6E6E73206F6E6C79000000636F6E6E1D
:10257000206D75737420626520696E2073746174B8
:1025800065204E4554434F4E4E5F434C4F534500DC
:1025900070636220616C726561647920636C6F7333
:1025A00065640000636F6E6E2D3E63757272656EBA
:1025B000745F6D736720213D204E554C4C00000028
:1025C000436C6F73696E672061206C697374656E0C
:1025D00020706362206D6179206E6F74206661697E
:1025E0006C210000898B0008F97C0008C92E0008C6
:1025F00010B5044600684368002B11D0017801F043
:10260000F001102919D0202911D040290AD021A386
:1026100040F2034229A12FA0FDF7ACFEFA202BE0E7
:10262000F42029E01846A16806F0AAF824E0A2895F
:102630001846A1680AF09AFC1EE0417809B1F7201B
:102640001AE006F007FB2068A289A16840682C4BBD
:1026500007F098F9207180B92068032290F82010C3
:1026600042702068C1F34001002910F8201F0AD0F1
:1026700041F004010170FB2020712068BDE810408A
:102680000C3006F0B3BC21F00401017020688462B4
:1026900010BD00002E2E5C4C5749505C6C77697061
:1026A0002D312E342E315C7372635C6170695C6114
:1026B00070695F6D73672E6300000000496E76617C
:1026C0006C6964206E6574636F6E6E2074797065DA
:1026D00000000000417373657274696F6E202225DB
:1026E0007322206661696C6564206174206C696E78
:1026F0006520256420696E2025730D0A0000000006
:102700000527000870B5154604000CD06078032832
:1027100006D023A340F2B6322BA133A0FDF72AFE48
:10272000A06A18B10FE06FF0050070BD94F82000AA
:10273000400709D41AA340F2B73236A12AA0FDF708
:1027400019FEA06A00B105712078102803D115B9CF
:10275000204606F07FFA94F82000002640F380051A
:1027600020F0040084F82000A66266706D1C09D178
:10277000FEF784FD94F9081011F1090F00DB2672B1
:10278000FEF792FDE36A1BB1002202212046984722
:102790001DB104F10C0006F029FC002070BD000002
:1027A0002E2E5C4C5749505C6C7769702D312E345D
:1027B0002E315C7372635C6170695C6170695F6D1E
:1027C00073672E6300000000636F6E6E2D3E73749E
:1027D000617465203D3D204E4554434F4E4E5F434E
:1027E0004F4E4E4543540000417373657274696FD8
:1027F0006E2022257322206661696C6564206174F5
:10280000206C696E6520256420696E2025730D0A91
:102810000000000028636F6E6E2D3E637572726556
:102820006E745F6D736720213D204E554C4C2920FE
:102830007C7C20636F6E6E2D3E696E5F6E6F6E5F87
:10284000626C6F636B696E675F636F6E6E656374F6
:102850000000000070B501680446487800281BD0CD
:10286000022819D003280CD00878102806D030A3ED
:1028700040F2473238A140A0FDF77CFDFB202071DB
:1028800031E091F82000400706D429A340F24A32F3
:1028900044A139A0FDF76EFD206803F009FD206812
:1028A0004268A2B1017801F0F001102927D000257B
:1028B000202905D0402908D1104605F0BBFF04E0CF
:1028C000D561206840680AF06FFC20684560206888
:1028D000C36A43B10022114698472068C36A13B106
:1028E00000220221984720680C3006F08AFB00285D
:1028F0001CD02068BDE870400C3006F077BB816AC0
:1029000009B9406A30B10AA340F25F322DA11AA082
:10291000FDF730FD216804204870032020722068F4
:1029200084622068BDE87040FFF732BD70BD0000D2
:102930002E2E5C4C5749505C6C7769702D312E34CB
:102940002E315C7372635C6170695C6170695F6D8C
:1029500073672E63000000006D73672D3E636F6E1A
:102960006E2D3E74797065203D3D204E4554434F99
:102970004E4E5F5443500000417373657274696F2B
:102980006E2022257322206661696C656420617463
:10299000206C696E6520256420696E2025730D0A00
:1029A00000000000626C6F636B696E6720636F6E7E
:1029B0006E65637420696E2070726F6772657373E1
:1029C00000000000616C726561647920777269743F
:1029D000696E67206F7220636C6F73696E670000A9
:1029E00010B5044600686FF00C024068002825D03E
:1029F000217C0029A16801D0006800E040680860DF
:102A0000002020712068017801F0F001102921D008
:102A1000202915D040290CD013A340F29B521CA1B1
:102A200021A0FDF7A7FC2068BDE810400C3006F09F
:102A3000DDBA217C11B14068007C11E02271F2E71F
:102A4000217C406809B1408A0AE0017C4907F5D53C
:102A5000808A05E0217C406809B1408B00E0808BD2
:102A6000E1680880DFE700002E2E5C4C5749505C7F
:102A70006C7769702D312E342E315C7372635C611A
:102A800070695C6170695F6D73672E6300000000A0
:102A9000696E76616C6964206E6574636F6E6E5FDB
:102AA0007479706500000000417373657274696F1A
:102AB0006E2022257322206661696C656420617432
:102AC000206C696E6520256420696E2025730D0ACF
:102AD0000000000010B50446002020712068406806
:102AE00010B9204604F0CEFF2068BDE810400C303D
:102AF00006F07CBA2DE9F0410546002028712868CF
:102B0000416899B10078102810D1AC684FF4803832
:102B10004FF6FF77444501D33E4600E0A6B2286851
:102B20003146406808F0B2FEA41BF3D12868BDE826
:102B3000F0410C3006F05ABA10B50446006890F91E
:102B4000081011F1090F07DB0178102901D0FA21D3
:102B500002E0417831B1FB212171BDE810400C3019
:102B600006F044BA4168002920D001214170206854
:102B7000816A09B9406A30B10DA340F24C5216A1E6
:102B80001CA0FDF7F7FBE06830B909A340F24E52F4
:102B900023A118A0FDF7EEFB2068846221680020C5
:102BA00048622068BDE8104000F044B8F321D3E744
:102BB0002E2E5C4C5749505C6C7769702D312E3449
:102BC0002E315C7372635C6170695C6170695F6D0A
:102BD00073672E6300000000616C72656164792088
:102BE00077726974696E67206F7220636C6F7369A6
:102BF0006E670000417373657274696F6E202225E1
:102C00007322206661696C6564206174206C696E52
:102C10006520256420696E2025730D0A00000000E0
:102C20006D73672D3E6D73672E772E6C656E202158
:102C30003D2030002DE9F047044690F82000A16ABD
:102C40004FF0000880070E7C01D4700701D50127E2
:102C500000E0002734B959A340F2C34261A165A046
:102C6000FDF788FB6078012806D054A340F2C442E7
:102C70006BA160A0FDF77EFBA06A30B94FA340F2C4
:102C8000C5426FA15BA0FDF775FB606830B94BA32F
:102C900040F2C64271A157A0FDF76CFBD4E90901CF
:102CA000C968884206D345A340F2C74271A151A02A
:102CB000FDF760FBA16A606A8A6802EB000ACA68D5
:102CC000111AB1F5803F04D34FF6FF7546F00206A6
:102CD00000E08DB261684FF00009B1F86610A942BA
:102CE00007D20D461FB125B96FF0060616E046F073
:102CF00002062844904206D930A340F2F5426AA168
:102D00003CA0FDF737FB33462A465146606809F080
:102D10001BFB060001D0701C3BD187B1A06AC068C4
:102D2000A8420CD9E36A1BB12A46032120469847E2
:102D300094F8200040F0100084F8200010E0606853
:102D400040F66932B0F86610914203D9B0F86800D5
:102D5000052805D3E36A1BB12A460321204698477C
:102D600016B1701C14D014E0606A28446062A16A35
:102D7000CA68904200D027B1C8604FF00108C4F87B
:102D80002490606807F0FEFBB8F1000F04D10DE05D
:102D90007FB1A16AC1F80C90A06A0671C4F82890AE
:102DA00084F8019004F10C0006F020F90020BDE841
:102DB000F087606807F0E6FBF8E700002E2E5C4C19
:102DC0005749505C6C7769702D312E342E315C730D
:102DD00072635C6170695C6170695F6D73672E63BB
:102DE00000000000636F6E6E20213D204E554C4C5C
:102DF00000000000417373657274696F6E202225B4
:102E00007322206661696C6564206174206C696E50
:102E10006520256420696E2025730D0A00000000DE
:102E2000636F6E6E2D3E7374617465203D3D204E60
:102E30004554434F4E4E5F575249544500000000E1
:102E4000636F6E6E2D3E63757272656E745F6D7327
:102E50006720213D204E554C4C000000636F6E6E84
:102E60002D3E7063622E74637020213D204E554CC0
:102E70004C000000636F6E6E2D3E77726974655F63
:102E80006F6666736574203C20636F6E6E2D3E63C3
:102E9000757272656E745F6D73672D3E6D73672E0C
:102EA000772E6C656E000000646F5F7772697465E1
:102EB0006D6F72653A20696E76616C6964206C652D
:102EC0006E677468210000002DE9F0410E46040091
:102ED00006D133A34FF4B1723BA13FA0FDF74AFAEC
:102EE00000276760FEF7CAF92672FEF7DDF96578FC
:102EF0006770E36A7BB10022042120469847E36AA9
:102F00004BB10022114620469847E36A1BB10022CC
:102F100002212046984704F11000804606F04AF846
:102F200018B10021404606F015F804F1140080465F
:102F300006F040F818B10021404606F00BF8012DCC
:102F40000FD0042D0DD0032D0BD0A06A002824D063
:102F5000BDE8F04112A34FF4C9722AA11EA0FDF7EB
:102F600009BA94F82000C0F3800120F0040084F82E
:102F70002000002911D1A06A30B909A340F28B12B8
:102F800027A115A0FDF7F6F9A06A067104F10C005F
:102F9000A762BDE8F04106F029B8BDE8F081000065
:102FA0002E2E5C4C5749505C6C7769702D312E3455
:102FB0002E315C7372635C6170695C6170695F6D16
:102FC00073672E6300000000636F6E6E20213D204A
:102FD0004E554C4C00000000417373657274696F6C
:102FE0006E2022257322206661696C6564206174FD
:102FF000206C696E6520256420696E2025730D0A9A
:1030000000000000636F6E6E2D3E63757272656E18
:10301000745F6D7367203D3D204E554C4C000000A1
:10302000636F6E6E2D3E63757272656E745F6D7345
:103030006720213D204E554C4C0000002DE9F84FF3
:1030400090468946050010D0B8F80A002A2866D3B1
:10305000D8F804604FF4807A344634F80E0F5045A7
:103060005DD1207906285AD108E02FA340F2BB2277
:1030700037A13BA0FDF77EF9BDE8F88F6079042801
:103080004DD1608808284AD1D4F80E000090A1697B
:10309000281D05D0686818B1814201D1012700E0E0
:1030A00000270FB1012300E0022304F10802694662
:1030B000284600F013FDE088504530D1002F2ED077
:1030C000022002F033FAE080D4F80E00A0616868B4
:1030D000C4F80E0095F82200062806D012A340F28C
:1030E00011322A491EA0FDF745F9A068C4F8120064
:1030F000A089E082A0683060A089B080D9F8001073
:10310000A160B9F80400A081D9F80010C6F8061033
:10311000B9F804007081AA694146284690474046A4
:1031200004F09CFAA8E700002E2E5C4C5749505C36
:103130006C7769702D312E342E315C7372635C6E46
:10314000657469665C6574686172702E6300000066
:103150006E6574696620213D204E554C4C00000080
:10316000417373657274696F6E2022257322206625
:1031700061696C6564206174206C696E65202564EA
:1031800020696E2025730D0A00000000C4E90008C4
:103190002DE9F34F80460A2085B0002402900746AF
:1031A000A346A2460190A14600904C4904EB84003E
:1031B00001EB80060390B57C0A2F18D0002D24D097
:1031C000012D08D0022D06D245A340F22B124EA1AC
:1031D0005DA0FDF7CFF8B8F1000F0CD0D8F80000D3
:1031E0007168884207D160B207B0BDE8F08F002D4A
:1031F000E6D167B209E0012D15D0022D05D3F07C90
:10320000504502D361B282460191641CE4B20A2C9B
:10321000CBD3069881074FF0FF30E5D40A2F15D0A5
:1032200017DAFCB23AE02D48039950F82100002843
:10323000F07C05D04845E8D361B281460091E4E7CF
:103240005845E2D361B283460291DEE70699C90789
:10325000CAD001990A290EDACCB2204804EB8401C5
:1032600050F8210070B11EA340F2711241A136A0A6
:10327000FDF780F806E002990A2902DB00990A2985
:10328000B2DACCB20A2C06D315A340F283123FA1C6
:103290002DA0FDF76FF8204600F098F80A2C06D311
:1032A0000FA340F2871239A127A0FDF763F80B485E
:1032B00004EB840100EB8105A87C30B108A34FF436
:1032C000C47237A120A0FDF755F8B8F1000F02D065
:1032D000D8F8000068600020E87484E7F8BB01209B
:1032E0002E2E5C4C5749505C6C7769702D312E3412
:1032F0002E315C7372635C6E657469665C657468BC
:103300006172702E630000007374617465203D3D2E
:10331000204554484152505F53544154455F5045F5
:103320004E44494E47207C7C207374617465203E76
:103330003D204554484152505F53544154455F53DA
:103340005441424C45000000417373657274696FCB
:103350006E2022257322206661696C656420617489
:10336000206C696E6520256420696E2025730D0A26
:10337000000000006172705F7461626C655B695D82
:103380002E71203D3D204E554C4C000069203C20C4
:103390004152505F5441424C455F53495A450000E9
:1033A0006172705F7461626C655B695D2E737461DC
:1033B0007465203D3D204554484152505F5354416F
:1033C00054455F454D5054590000000070B50C4EF7
:1033D00000EB8004002556F8240018B104F03EF9F3
:1033E00046F8245006EB840006498574C574856050
:1033F0004560D1F80620C2604989018270BD000095
:10340000F8BB01209CE800082DE9FC4115460E465A
:10341000040006D145A340F275324EA151A0FCF73D
:10342000A9FF36B941A340F2763259A14DA0FCF76D
:10343000A1FF35B93DA340F2773258A149A0FCF76E
:1034400099FF0E21304604F0BFF918B16FF001006A
:10345000BDE8FC812146286800F0D6FE08B1534B38
:103460003CE02868C0F303110E2922D0A1686368EC
:1034700000EA01020B409A420BD080B2A0F57E41D7
:10348000A93906D014F10C0F2FD0E06868B304F10D
:103490000C05474B474A187800EB800102EB81018D
:1034A0008F7C022F24D32F6849688F4220D1024697
:1034B0002CE001208DF8000000208DF801005E2036
:1034C0008DF8020068786B4600F07F008DF80300ED
:1034D000A8788DF80400E8788DF8050004F123023F
:1034E0003146204600F086FAB2E76FF00300AFE7FE
:1034F000002000EB800102EB81018F7C022F0AD3B8
:103500002F6849688F4206D1C2B21A7031462046F0
:1035100000F052F89CE7401C40B20A28E9DB324632
:103520002946204600F0B6F892E700002E2E5C4CAB
:103530005749505C6C7769702D312E342E315C7395
:1035400072635C6E657469665C6574686172702E26
:10355000630000006E6574696620213D204E554C65
:103560004C000000417373657274696F6E202225F0
:103570007322206661696C6564206174206C696ED9
:103580006520256420696E2025730D0A0000000067
:103590007120213D204E554C4C0000006970616443
:1035A000647220213D204E554C4C00009CE80008E0
:1035B000F8010020F8BB012070B505460E461348FF
:1035C00002EB820100EB8104A07C022806D210A34A
:1035D0004FF4537218A124A0FCF7CCFEA07C022863
:1035E00009D1E07CE42806D3211D284600F0F0F93B
:1035F00008B90320A07404F10C0305F1230231463D
:103600002846BDE8704000F0F5B90000F8BB012085
:103610002E2E5C4C5749505C6C7769702D312E34DE
:103620002E315C7372635C6E657469665C65746888
:103630006172702E630000006172705F7461626C71
:10364000655B6172705F6964785D2E737461746527
:10365000203E3D204554484152505F53544154450B
:103660005F535441424C4500417373657274696FF6
:103670006E2022257322206661696C656420617466
:10368000206C696E6520256420696E2025730D0A03
:10369000000000002DE9F74F82B0884602984FF0F5
:1036A000FF3B23300090086816465F46029900F001
:1036B000ABFD002829D1D8F80000C0F303110E2972
:1036C00023D0B8F1000F20D000281ED001214046A1
:1036D000FFF75EFD04001AD4DFF8DCA004EB8409D8
:1036E0000AEB8905A87C002814D0012814D00228F0
:1036F00009D232A340F219423AA144A0FCF73AFEA3
:10370000A87C012808D03EB10DE06FF00D0005B097
:10371000BDE8F08F0120A8744146029800F058F9E6
:103720000746002EF3D0A87C02280AD3424805F1B0
:103730000C0331460470009A029800F05BF90746CA
:1037400038E0D046012835D10025344640F23E47C6
:1037500060892189884207D1206828B117A33A4699
:1037600036A12AA0FCF706FE207B012803D124689D
:10377000002CEDD175B121890022032003F034FB28
:10378000050016D0314603F0EFFD40B1284603F0A6
:1037900065FF0EE03546304604F066F94DB158F845
:1037A0002900444608B103F059FF44F82950002786
:1037B00000E05F463846AAE7F8BB01202E2E5C4C9D
:1037C0005749505C6C7769702D312E342E315C7303
:1037D00072635C6E657469665C6574686172702E94
:1037E000630000006172705F7461626C655B695DAB
:1037F0002E7374617465203D3D2050454E44494E02
:1038000047206F7220535441424C45004173736509
:103810007274696F6E2022257322206661696C655F
:1038200064206174206C696E6520256420696E20B7
:1038300025730D0A00000000F80100206E6F207053
:1038400061636B65742071756575657320616C6C5F
:103850006F776564210000002DE9F05FDDF82CB082
:10386000984691468A46070006D132A340F2A54207
:103870003AA13EA0FCF77EFD00222A21032003F09E
:10388000B3FA060053D070892A2806D229A34FF430
:10389000966241A135A0FCF76DFD75680D9805F1A4
:1038A0000E0401F043FEE08097F82200062806D0BF
:1038B00020A34FF4976245492CA0FCF75BFDD8F894
:1038C0000010A160B8F80400A081DBF80010C4F873
:1038D0001210BBF80400E082D9F800102960B9F892
:1038E0000400A880DAF80010C5F80610BAF8040041
:1038F00068810A9831460068C4F80E000C98006888
:10390000A0614FF480702080082060800620207124
:10391000042060714FF4C160A881BA6938469047AD
:103920000446304603F09AFE2046BDE8F09F4FF073
:10393000FF30FAE72E2E5C4C5749505C6C7769706B
:103940002D312E342E315C7372635C6E6574696642
:103950005C6574686172702E630000006E65746946
:103960006620213D204E554C4C000000417373658C
:103970007274696F6E2022257322206661696C65FE
:1039800064206174206C696E6520256420696E2056
:1039900025730D0A00000000636865636B2074687E
:1039A0006174206669727374207062756620636149
:1039B0006E20686F6C642073747275637420657414
:1039C000686172705F68647200000000C4E90008FA
:1039D0001FB50123064C021DCDE90213CDE90024D9
:1039E00000F123031946A21FFFF736FF04B010BDF4
:1039F000A2E800082DE9F041054690F822004C6845
:103A00001E4617468846062806D00CA340F2A3128D
:103A1000144915A0FCF7AEFC30682060B088A08087
:103A20003868C4F80600B88860810820A081414643
:103A30002846AA69BDE8F041104700002E2E5C4CD4
:103A40005749505C6C7769702D312E342E315C7380
:103A500072635C6E657469665C6574686172702E11
:103A600063000000C4E90008417373657274696FF4
:103A70006E2022257322206661696C656420617462
:103A8000206C696E6520256420696E2025730D0AFF
:103A90000000000070B5104D002404EB840005EB1D
:103AA0008000827C92B1C17C491CC9B2C174F029EA
:103AB00006D2012A02D0032A06D007E0022905D344
:103AC0002046FFF783FC01E002218174641CE4B20C
:103AD0000A2CE2D370BD0000F8BB01202DE9F041B3
:103AE000044690F822001F4615460E46062806D0CA
:103AF0001EA340F2C31227A130A0FCF73BFC86B303
:103B0000306870B3214600F07FFB50BB3078C0F3C3
:103B100003100E2826D039463046FFF739FB00281F
:103B20001DDB314A00EB800102EB8100022383742C
:103B300084602B68C360AB8803820023C37452F88F
:103B400021605EB142F821302B4604F12302314658
:103B50002046FFF74FFF304603F080FD0020BDE810
:103B6000F081FFE76FF00D00F9E700002E2E5C4CAE
:103B70005749505C6C7769702D312E342E315C734F
:103B800072635C6E657469665C6574686172702EE0
:103B9000630000006E657469662D3E687761646439
:103BA000725F6C656E203D3D204554484152505F28
:103BB0004857414444525F4C454E00004173736581
:103BC0007274696F6E2022257322206661696C65AC
:103BD00064206174206C696E6520256420696E2004
:103BE00025730D0A00000000F8BB012070B50446E3
:103BF00040890D460E2842D9606801788689CA0737
:103C000014D0012905D006221F49FCF7E9FC48B170
:103C10000CE0417851B980785E2807D1607B40F094
:103C2000100002E0607B40F008006073082E03D0B3
:103C3000B6F5C16F23D116E095F8290080061ED590
:103C40006FF00D01204603F0BFFD38B10FA340F225
:103C50004F5218A120A0FCF78DFB10E0294620460A
:103C600000F028FC09E095F82900800607D52246D7
:103C700005F123012846FFF7E1F9002070BD204639
:103C800003F0ECFCF9E700009CE800082E2E5C4CE9
:103C90005749505C6C7769702D312E342E315C732E
:103CA00072635C6E657469665C6574686172702EBF
:103CB0006300000043616E2774206D6F7665206F8E
:103CC0007665722068656164657220696E20706136
:103CD000636B657400000000417373657274696FF3
:103CE0006E2022257322206661696C6564206174F0
:103CF000206C696E6520256420696E2025730D0A8D
:103D00000000000010B5040005D10AA3742214A11C
:103D100016A0FCF72FFB652084F82A006E2084F89B
:103D20002B001D4860611D48A061204601F018FA73
:103D3000002010BD2E2E5C4C5749505C6C7769708A
:103D40002D312E342E315C7372635C6E657469663E
:103D50005C65746865726E657469662E6300000048
:103D60006E65746966213D4E554C4C004173736518
:103D70007274696F6E2022257322206661696C65FA
:103D800064206174206C696E6520256420696E2052
:103D900025730D0A0000000009340008F5510008E1
:103DA0002DE9FE43814600256846FDF791F9DDE9DE
:103DB00001710098884681B20322104603F014F87E
:103DC00006000AD00446791962896068FCF753FC42
:103DD000608924680544002CF5D14FF00041C8F8F3
:103DE00000100C484169090603D58021416100217A
:103DF000816066B1D9F810204946304690470400EA
:103E000002D0304603F02AFC2046BDE8FE834FF086
:103E1000FF30FAE70090024003490A885206FCD5B9
:103E2000C2B28A8070470000001001400A46032198
:103E300000F040B92DE9FE4F456804468A462878CF
:103E40000007870E79428846204603F0BDFC002813
:103E50007AD12089042877D36068007800287FD041
:103E600008287DD1414901260868C0F303120E2AB3
:103E700000D100268946514600F0C6F900286FD1CE
:103E8000002E6DD0208908286AD3204600F098F9CA
:103E9000002865D12221204603F096FC002831D06D
:103EA0003946204603F090FC18B131A398223AA17C
:103EB00047E021890022022002F096FF06004FD041
:103EC000718907F10800814205D229A3A1223FA1EF
:103ED0004CA0FCF74FFA2146304603F045FA18B1E2
:103EE00023A3A52252A12CE041463046756803F079
:103EF0006BFC10B11EA3AB220CE0204603F0AEFB1E
:103F0000344609E06FF02101204603F05DFC18B152
:103F100017A3B52250A114E06068D9F80010E96039
:103F20005A4900260968296106704680FF202872D8
:103F30006E813946204603F047FC30B10CA3EC22D9
:103F400053A130A0FCF716FA0AE00121CDE9006187
:103F5000FF230022CDF808A00449204600F0A6FB6C
:103F60002046BDE8FE4F03F079BB0000EC010020C5
:103F70002E2E5C4C5749505C6C7769702D312E3475
:103F80002E315C7372635C636F72655C697076344A
:103F90005C69636D702E630069636D705F696E703C
:103FA00075743A206D6F76696E6720702D3E706172
:103FB000796C6F616420746F20697020686561643A
:103FC0006572206661696C65640A000063686563F8
:103FD0006B207468617420666972737420706275F6
:103FE000662063616E20686F6C6420737472756301
:103FF00074207468652049434D502068656164658C
:1040000072000000417373657274696F6E2022251F
:104010007322206661696C6564206174206C696E2E
:104020006520256420696E2025730D0A00000000BC
:1040300069636D705F696E7075743A20636F707933
:10404000696E6720746F206E6577207062756620D8
:104050006661696C65640A0069636D705F696E70A2
:1040600075743A20726573746F72696E67206F722F
:104070006967696E616C20702D3E7061796C6F614B
:1040800064206661696C65640A000000E801002034
:1040900043616E2774206D6F7665206F76657220A0
:1040A00068656164657220696E207061636B657418
:1040B000000000002DE9FE4391460E46074600220F
:1040C0002421012002F090FE05002DD068892428CB
:1040D00006D216A34FF4A2721EA129A0FCF74AF93A
:1040E0006C68D7F804801C22267084F801900026A2
:1040F000A680E680686879680830FCF7BCFA6680BC
:104100006989204600F056F86080D8F80C000290CB
:104110000120CDE90060FF2302AA0021284600F01B
:1041200071FA284603F09AFABDE8FE832E2E5C4C05
:104130005749505C6C7769702D312E342E315C7389
:1041400072635C636F72655C697076345C69636D21
:10415000702E6300636865636B2074686174206609
:104160006972737420706275662063616E20686F77
:104170006C642069636D70206D65737361676500A1
:10418000417373657274696F6E20222573222066F5
:1041900061696C6564206174206C696E65202564BA
:1041A00020696E2025730D0A000000000A460B21CD
:1041B000FFF780BF10B501F0DCF9C04380B210BD3D
:1041C00070B500240546264613E06989686801F049
:1041D000D0F92044010C11FA80F4A87AC00707D066
:1041E000C6F10100C6B2E0B2C4F3072141EA0024DF
:1041F0002D68002DE9D126B1E0B2C4F3072141EAD0
:104200000024E04380B270BD421C12D088B191F806
:10421000292092070BD54A68824208D0896800EAB3
:1042200001030A40934202D10143491C01D00020FE
:1042300070470120704700002DE9F74F8AB004460F
:104240000B9814250026078C60680690C08801F042
:1042500086F9C0F30C0100F4005003910890208906
:104260001438143F1FFA80F9F81707EB5070C0F3A9
:10427000CF00079704908EE00799894501DC012063
:1042800000E000200399089AC1F30C011143059145
:10429000002825D048461FFA80FB00221421022066
:1042A00002F0A2FD0290002820D06089142806D2D6
:1042B00040A340F2FB224AA151A0FCF75BF8029810
:1042C000142206994068FCF7D6F90298D0F804A0A9
:1042D0006068284460606089401B60815D4631E011
:1042E00041F4005005900498C000D4E74FF0FF302F
:1042F0000DB0BDE8F08F6689AE4200D92E4606B3F8
:10430000062001F027FD07004BD06068CDE90006CC
:104310003B4602223146032002F014FF5FEA000808
:1043200043D0204603F0A0FB4048C7E904044146BF
:10433000029802F073FFA81B05042D0C04D024681A
:10434000D9E72468002DD6D13546059801F0EEF85E
:10435000AAF806000BF1140080B201F0E7F8AAF801
:1043600002000021AAF80A1014215046FFF722FF8C
:10437000AAF80A000B980C9A029943699847029888
:1043800003F06CF9A9EB0B001FFA80F9DDE90301DA
:10439000084480B20390B9F1000F7FF46DAF0020A4
:1043A000A6E7029803F05AF9A0E7384600F040F873
:1043B000F7E700002E2E5C4C5749505C6C77697013
:1043C0002D312E342E315C7372635C636F72655CC9
:1043D000697076345C69705F667261672E63000095
:1043E00074686973206E65656473206120706275FE
:1043F0006620696E206F6E652070696563652100B7
:10440000417373657274696F6E2022257322206672
:1044100061696C6564206174206C696E6520256437
:1044200020696E2025730D0A00000000D550000899
:1044300010B5040006D106A340F279220FA112A004
:10444000FBF798FF2146BDE81040062001F0FCBBB9
:104450002E2E5C4C5749505C6C7769702D312E3490
:104460002E315C7372635C636F72655C6970763465
:104470005C69705F667261672E6300007020213D89
:10448000204E554C4C000000417373657274696F87
:104490006E2022257322206661696C656420617438
:1044A000206C696E6520256420696E2025730D0AD5
:1044B000000000002DE9F05F456806468846287830
:1044C0000421B1EB101F0FD100F00F004FF6FF7168
:1044D00001EA8004688801F042F801467089A04230
:1044E00002D33089884203D2304603F0B7F84EE059
:1044F000304603F0F5F941482969A0F1040A01604A
:10450000EA68DFF8FCB0012744468146CAF800207B
:1045100094F82900C0070BD0201D09D0616839B17B
:10452000D9F8000088420ED02146FFF76DFE50B941
:104530001FB10027DBF8004000E02468444500D1AB
:104540002468002CE4D157464146DAF80000FFF712
:104550005BFE0028C8D13878BA46C0F303100E2895
:10456000C2D0002CC0D0E88830F0C00005D0304662
:1045700000F04EF906000AD07568204C4146103C08
:104580003046C4E9018504F001F918B12DE000209E
:10459000BDE8F09F687A012815D006280ED01128B2
:1045A00007D04F464146D9F80000FFF72DFE78B1FD
:1045B00018E04146304608F001FD16E0414630461D
:1045C00005F090FC11E041463046FFF733FC0CE06B
:1045D0003878C0F303100E2804D0022130467560ED
:1045E000FFF724FC304603F039F800206060A0603B
:1045F000CAF80000C9F80000C9E70000EC0100207B
:10460000800100202DE9FE430446DDE90A65C089EA
:10461000984617468946012806D00CA340F2393245
:1046200014A117A0FBF7A6FE384600F073FC50B1AA
:104630000096CDE9015043463A464946204600F0EF
:1046400035F8BDE8FE836FF00300FAE72E2E5C4CD0
:104650005749505C6C7769702D312E342E315C7364
:1046600072635C636F72655C697076345C69702E2E
:1046700063000000702D3E726566203D3D203100D4
:10468000417373657274696F6E20222573222066F0
:1046900061696C6564206174206C696E65202564B5
:1046A00020696E2025730D0A000000002DE9F84FE7
:1046B0000546DDE90BA6C089DDF828B09846174607
:1046C0008946012806D02DA34FF4277235A138A0C2
:1046D000FBF750FE002F3CD01421284603F074F85D
:1046E00018B16FF00100BDE8F88F68896C68142874
:1046F00006D222A340F2C92238A12DA0FBF73AFE30
:1047000084F8088084F809A038682061452020706A
:1047100084F801B0288900F009FFDFF8F08060809C
:104720004FF0000AA4F806A0B8F8000000F0FEFE62
:10473000A080B8F80000401CA8F80000B9F1000FF4
:1047400002D0D9F8000000B97068E060A4F80AA0AF
:1047500003E068686F4600690090308C40B1298999
:10476000814205D93A4631462846FFF765FDBAE74A
:1047700073693A46294630469847B4E72E2E5C4C7A
:104780005749505C6C7769702D312E342E315C7333
:1047900072635C636F72655C697076345C69702EFD
:1047A00063000000702D3E726566203D3D203100A3
:1047B000417373657274696F6E20222573222066BF
:1047C00061696C6564206174206C696E6520256484
:1047D00020696E2025730D0A000000006368656380
:1047E0006B207468617420666972737420706275DE
:1047F000662063616E20686F6C64207374727563E9
:10480000742069705F68647200000000DC010020A1
:104810002DE9F14F002700984468207800F00F0040
:1048200005287CD1E08800F09AFEC0044FEA104AC7
:10483000608800F094FE217801F00F01494200EBFE
:1048400081001FFA80F9009802F085FD584D064658
:10485000288830440A2809D93146204600F0FCFA5D
:1048600000285CD0288830440A2858D8A8466D68AB
:104870004FF0000B0DE06869E168884207D1A86934
:104880002169884203D1A889A188884204D02F4693
:104890002D68002DEFD106E02DB1E08800F05FFE1D
:1048A000C00424D02EE0052001F054FA05000AD1FE
:1048B0003146204600F0D0FAB04216DB052001F068
:1048C00049FA050011D02021FBF744FF0320E877C7
:1048D000D8F8041029601422214605F10800C8F810
:1048E0000450FBF7C8FED5B10CE05D46FBE7E88954
:1048F00000F035FEC00405D01422214605F1080061
:10490000FBF7B9FEB8F800103144A8F80010A07900
:10491000800608D4A87F40F00100A87700E041E0BD
:104920000AEB0900A8832846009900F043F8002804
:1049300036D0A88B14221430A883686805F10801CA
:10494000466830463468FBF796FEA88B00F0EEFD13
:104950007080A6F806B0A6F80AB014213046FFF71A
:1049600029FC70816FF0130AD5F8049009E05146D4
:104970002046666802F028FF2146484602F04EFCB9
:104980003468002CF3D13946284600F04DF94846EA
:1049900002F0E1FCB8F80020101AA8F80000484620
:1049A000BDE8F88F009802F059FE0020F8E70000FB
:1049B000F00100202DE9F0474C68064688460025A6
:1049C0000127608800F0CBFD217801F00F014942FA
:1049D00000EB8109E08800F0C2FDC004D8F8044073
:1049E000020C0020206002EB0900A2801FFA80FC6C
:1049F000A4F806C071681DE0486883889A420ED208
:104A0000216045B1EB889A4275D38088844572D87D
:104A1000C5F8008001E0C6F8048069B12BE06AD0D7
:104A2000C1888A4267D31DB1E988994200D0002726
:104A3000016805460029DFD195B1E888A188884240
:104A400006D933A340F293123CA144A0FBF792FC99
:104A5000C5F80080E888A18888420CD000270AE0C9
:104A6000706830B12AA340F29B1247A13BA0FBF72C
:104A700081FCC6F80480B07FC00739D0002F36D043
:104A800072685068808838B92068214630B144681F
:104A9000C888A1888842F7D0002728E0002F26D0B8
:104AA00032B91BA34FF4DE7245A12CA0FBF762FCC8
:104AB00070684068A04206D115A340F2BD1240A123
:104AC00026A0FBF757FC206830B111A340F2BF12BB
:104AD0003FA122A0FBF74EFCE088B18B884206D0B4
:104AE0000BA340F2C11243A11CA0FBF743FC3846C4
:104AF000BDE8F087FFE7404602F02DFC49490A88EF
:104B0000101A0880404602F0A9FD0020F0E70000DE
:104B10002E2E5C4C5749505C6C7769702D312E34C9
:104B20002E315C7372635C636F72655C697076349E
:104B30005C69705F667261672E630000636865631D
:104B40006B20667261676D656E747320646F6E278B
:104B500074206F7665726C6170000000417373653C
:104B60007274696F6E2022257322206661696C65FC
:104B700064206174206C696E6520256420696E2054
:104B800025730D0A000000006E6F20707265766953
:104B90006F757320667261676D656E742C20746822
:104BA0006973206D75737420626520746865206672
:104BB0006972737420667261676D656E742100009E
:104BC00073616E69747920636865636B000000002F
:104BD00076616C69646174655F6461746167726158
:104BE0006D3A6E6578745F70627566213D4E554C06
:104BF0004C00000076616C69646174655F64617487
:104C0000616772616D3A646174616772616D20659C
:104C10006E64213D646174616772616D206C656EC4
:104C200000000000F001002070B504460B480D465E
:104C30004168A14202D12168416009E035B908A369
:104C400040F2391211A118A0FBF794FB20682860EC
:104C50002146BDE87040052000F0F6BFF0010020BD
:104C60002E2E5C4C5749505C6C7769702D312E3478
:104C70002E315C7372635C636F72655C697076344D
:104C80005C69705F667261672E63000073616E69B4
:104C9000747920636865636B206C696E6B65642052
:104CA0006C69737400000000417373657274696FFE
:104CB0006E2022257322206661696C656420617410
:104CC000206C696E6520256420696E2025730D0AAD
:104CD000000000002DE9F047064600250F46B142CE
:104CE00005D12FA3A52239A13BA0FBF743FB47B178
:104CF0003868B04205D02AA3A72242A136A0FBF70C
:104D000039FB74684FF480386068818800291AD1B3
:104D100000687060142206F108016068FBF7ABFCC4
:104D200001212046FFF742FA204602F014FB054617
:104D3000404505D31AA3B62237A127A0FBF71AFBDB
:104D4000204602F08BFCC146746812E06068A04601
:104D50000468404602F0FFFA05444D4505D310A310
:104D6000C6222DA11CA0FBF705FBADB2404602F008
:104D700075FC002CEAD139463046FFF755FF2E4C22
:104D80002088A84205D206A3CC222CA112A0FBF7B2
:104D9000F1FA2088401B20802846BDE8F0870000FB
:104DA0002E2E5C4C5749505C6C7769702D312E3437
:104DB0002E315C7372635C636F72655C697076340C
:104DC0005C69705F667261672E6300007072657661
:104DD00020213D2069707200417373657274696FA0
:104DE0006E2022257322206661696C6564206174DF
:104DF000206C696E6520256420696E2025730D0A7C
:104E000000000000707265762D3E6E657874203D5E
:104E10003D2069707200000070627566735F667293
:104E2000656564202B20636C656E203C3D203078E6
:104E30006666666600000000F001002069705F721F
:104E4000656173735F70627566636F756E74203E23
:104E50003D20636C656E00002DE9F041DFF868804D
:104E60000F4605460026002213461446D8F80400D3
:104E70001AE04169D5F80CC0614509D18169D5F8BE
:104E800010C0614504D18189B5F804C0614507D0DF
:104E9000641C22B1C17F92F81FC0614500D8024650
:104EA000016801B1034608460028E2D122B1194643
:104EB0001046FFF70FFF0644BE4201DA012CD2DC98
:104EC0003046BDE8F0810000F001002010B500F090
:104ED0000BF8BDE81040002202494FF47A7004F04C
:104EE000ADB80000CD4E000870B5094800254468F3
:104EF0000BE0E07F20B1401EE0772546246804E007
:104F0000204624682946FFF7E5FE002CF1D170BD4C
:104F1000F001002010B504460C480AE090F8291072
:104F2000C90706D08168226843680A400B409A424C
:104F30000AD000680028F1D10548006818B190F83F
:104F40002910C90700D1002010BD000080010020F9
:104F50008401002008B5694600F006F808B1009801
:104F600008BD4FF0FF3008BD2DE9FF4102780D4626
:104F70006B46A2F130010A295ED200240A21302AB0
:104F800006D110F8012F782A09D0582A07D0082115
:104F9000A2F13006092E04D804FB016414E01021AC
:104FA00012E0102913D1A2F16106052E03D9A2F156
:104FB0004107052F0BD8192E01D8612600E04126A4
:104FC000921B0A3242EA041410F8012FE0E72E2A5D
:104FD0000DD09AB1202A11D00C2A0FD00A2A0DD058
:104FE0000D2A0BD0092A09D00B2A25D106E003A9E6
:104FF0008B4221D210C310F8012FBAE76846181A65
:10500000012101EBA000052824D2DFE800F01529DA
:10501000030A1300B4F1807F0ED2009844EA0064C2
:105020001EE0B4F5803F07D200980199000640EADF
:1050300001400DE0FF2C03D9002004B0BDE8F08151
:1050400000980199000640EA0140029940EA0120D7
:10505000044305E006A3F32210A113A0FBF78AF98D
:105060001DB1204600F060FA28600120E5E700004D
:105070002E2E5C4C5749505C6C7769702D312E3464
:105080002E315C7372635C636F72655C6970763439
:105090005C69705F616464722E630000756E6861A4
:1050A0006E646C6564000000417373657274696FAF
:1050B0006E2022257322206661696C65642061740C
:1050C000206C696E6520256420696E2025730D0AA9
:1050D0000000000010B5040006D108A340F28322AE
:1050E00011A114A0FBF746F9606908B102F0B6FA05
:1050F0002046BDE81040FFF79BB900002E2E5C4C07
:105100005749505C6C7769702D312E342E315C73A9
:1051100072635C636F72655C697076345C69705F42
:10512000667261672E63000070637220213D204E1D
:10513000554C4C00417373657274696F6E20222563
:105140007322206661696C6564206174206C696EED
:105150006520256420696E2025730D0A000000007B
:1051600070B5062180F822101D490A7880F82320A6
:105170004A7880F824208A7880F82520CA7880F838
:1051800026200A7980F82720497980F8281040F2F3
:10519000DC510184322180F8291000F12301002024
:1051A000FBF7ACFE0F48104D052201682868FBF79D
:1051B000CDFC0E48052201680D480068FBF78CFC09
:1051C00000244FF440062868314600EB4410FBF7FA
:1051D000E1FC641C052CF6DBFBF7AEFF002070BD84
:1051E0002CA5012058000020500000205400002071
:1051F0004C00002070B50C460025FBF7F7FC064676
:1052000007E0628970196168FBF735FA60892468E4
:105210000544002CF5D1A8B2FBF7E4FF08B100204B
:1052200070BD4FF0FF3070BD70B512490968C024E1
:105230008471A825C571012202726823437202237A
:1052400003700023437083700E0CC6700E0A067143
:1052500041718472C572027364214173FF218173AD
:10526000C173017443748474C57402754275837587
:1052700070BD0000107AFF1F10B586B00024FBF748
:10528000D3FE10B1012006B010BD3CA0FBF772F8B0
:1052900000F02CF908B10220F5E73DA0FBF76AF811
:1052A0004148FFF7C1FF41A0FBF764F80BE046A0BF
:1052B000FBF760F8641CE4B2052C04D946A0FBF7A8
:1052C00059F80320DFE7FBF76FFB0028EFD100213F
:1052D000084607F039FC44A0FBF74CF8324CA07AA2
:1052E000D4F80B1040EA01200390A07BD4F80F10F3
:1052F00040EA01200490A07CD4F8131040EA012079
:105300000590E078627921798DE80700A3786278CA
:10531000217839A0FBF72EF8607B0090237BE27A9E
:10532000A17A43A0FBF726F8607C0090237CE27B07
:10533000A17B4BA0FBF71EF8607D0090237DE27CF3
:10534000A17C53A0FBF716F85D4A5E4900208DE86A
:10535000070005AB04AA03A904F1180001F07AFCC8
:1053600048B104F1180001F0EDFC04F1180001F05F
:105370002BFD002087E7042085E700004554485FA7
:105380004D656D5F4D616C6C6F630D0A0000000030
:105390006C7769705F636F6D6D5F6D656D5F6D617B
:1053A0006C6C6F630D0A00002CA501206C7769708E
:1053B0005F636F6D6D5F64656661756C745F697066
:1053C0005F7365740D0A0000445038333834385F19
:1053D000496E69740D0A0000CDF8BFA8B3F5CABCC8
:1053E000BBAFCAA7B0DC0A0074637069705F696EF6
:1053F00069740D0A00000000CDF8BFA8656EB5C441
:105400004D4143B5D8D6B7CEAA3A2E2E2E2E2E2EEB
:105410002E2E2E2E2E2E2E2E2E2E25642E25642E52
:1054200025642E25642E25642E25640D0A000000B7
:10543000BEB2CCAC4950B5D8D6B72E2E2E2E2E2EBD
:105440002E2E2E2E2E2E2E2E2E2E2E2E2E2E2E2E7C
:105450002E2E25642E25642E25642E25640D0A002B
:10546000D7D3CDF8D1DAC2EB2E2E2E2E2E2E2E2E05
:105470002E2E2E2E2E2E2E2E2E2E2E2E2E2E2E2E4C
:105480002E2E25642E25642E25642E25640D0A00FB
:10549000C4ACC8CFCDF8B9D82E2E2E2E2E2E2E2E3F
:1054A0002E2E2E2E2E2E2E2E2E2E2E2E2E2E2E2E1C
:1054B0002E2E25642E25642E25642E25640D0A00CB
:1054C00015CC0008053D0008064810B5016800200D
:1054D00000F05EFD04480168BDE81040002000F0C7
:1054E00057BD0000780100206401002010B500F0D5
:1054F000FFFB0146002000F057FD094C44F63C61DB
:105500002060002000F050FD06490860216811B1BC
:1055100008B1002010BDFFF7D7FF012010BD00002B
:10552000780100206401002000BA704740BA70473B
:1055300010B503F090FC00F051F900F0DDFB01F034
:10554000EFFB00F015F807F037FD04F0C9FCFCF79D
:1055500099FCBDE8104003F0F1BD00BA704740BAB5
:10556000704700000148FEF71BBC000044A5012065
:10557000704718B50022ADF8002010F001030BD0E1
:10558000002909DD10F8014B8DF80140491E03E0A8
:1055900030F8024B891E22440129F9DC002902DD82
:1055A00000788DF80000BDF800001044010C11FADD
:1055B00080F0010C11FA80F023B1C1B2C0F30720D2
:1055C00040EA012080B218BD1CB54FF44070FCF7D2
:1055D000A7F8A820FCF750FB4FF4E13007F0DCFB04
:1055E000FCF74AF8FBF7BAFF002000F051FC01205D
:1055F00000F04EFC022000F04BFC02E010A0FAF795
:10560000B9FEFFF739FE0028F8D112A000E017A07C
:10561000FAF7B0FE03F0A6FF0028F8D118A0FAF7B9
:10562000A9FE1D490020CDE9000103464FF4805238
:105630001AA11D4808F048FE08F0A8F900201CBD7A
:105640004C77697020496E6974206661696C656485
:10565000210D0A004C77697020496E6974207375BA
:105660006363657373A3A10D0A00000054435020C7
:10567000436C69656E74206661696C656421210004
:1056800054435020436C69656E7420737563636581
:105690007373212100000000000000207374617208
:1056A000745F7461736B0000998C000870B504001E
:1056B00041D0A00706D020A340F2411227A130A07C
:1056C000FAF758FE394D6868844202D3A8688442CC
:1056D00006D319A340F2431235A129A0FAF74AFED6
:1056E0006868844202D3A868844205D3FBF7C6FDEC
:1056F000BDE87040FBF7D8BD2C480021103003F006
:105700006FFB14F8040C083C30B90BA34FF4AA72D9
:105710002DA11BA0FAF72EFE00202071E86884421C
:1057200000D2EC60204602F031FABDE870401F481C
:10573000103003F05BBC70BD2E2E5C4C5749505CA2
:105740006C7769702D312E342E315C7372635C631B
:105750006F72655C6D656D2E630000006D656D5F39
:10576000667265653A2073616E6974792063686555
:10577000636B20616C69676E6D656E74000000007C
:10578000417373657274696F6E20222573222066DF
:1057900061696C6564206174206C696E65202564A4
:1057A00020696E2025730D0A0000000064010020AE
:1057B0006D656D5F667265653A206C6567616C202A
:1057C0006D656D6F727900006D656D5F6672656500
:1057D0003A206D656D2D3E757365640010B5124AF3
:1057E00044F62063002110680124C01C20F003004F
:1057F0005060038041800171C11891600C710B8071
:105800004B80D060214602F1100003F0E0FB00283D
:1058100008D0BDE8104005A340F22D120CA113A042
:10582000FAF7A8BD10BD0000640100202E2E5C4CCC
:105830005749505C6C7769702D312E342E315C7372
:1058400072635C636F72655C6D656D2E6300000052
:105850006661696C656420746F206372656174654C
:10586000206D656D5F6D75746578000041737365BB
:105870007274696F6E2022257322206661696C65DF
:1058800064206174206C696E6520256420696E2037
:1058900025730D0A000000002DE9F04700280DD007
:1058A0004FF6FC71C01C00EA010544F620670C2D80
:1058B00001D20C2504E0BD4202D90020BDE8F087EA
:1058C00000213D4803F08CFA3B4E103E7A1BD6F87F
:1058D0000CC07168ACEB010080B267E00C18237952
:1058E000002B62D123881B1A083BAB425DD3228870
:1058F00005F11403121A083A4FF001099A4215D320
:105900004219083293B2CA184FF0000882F8048096
:10591000B4F80080A2F800805080238084F80490BE
:105920001088B84204D08A1C835201E084F80490A5
:10593000644518D1B06803E0BCF8002002EB010C0C
:105940009CF804200AB18445F6D1C6F80CC0844501
:1059500009D09CF8040030B118A340F2632220A1C2
:1059600026A0FAF707FD144803F040FB6019B16860
:105970000830884206D911A340F267222AA11FA04D
:10598000FAF7F8FCA0070DD00CA340F2692232A16F
:105990001AA0FAF7EFFC09A340F26B223AA117A074
:1059A000FAF7E8FC04F1080088E7085A824295DC1F
:1059B000014803F01BFB80E7740100202E2E5C4C95
:1059C0005749505C6C7769702D312E342E315C73E1
:1059D00072635C636F72655C6D656D2E63000000C1
:1059E0006D656D5F6D616C6C6F633A20216C6672E2
:1059F00065652D3E75736564000000004173736535
:105A00007274696F6E2022257322206661696C654D
:105A100064206174206C696E6520256420696E20A5
:105A200025730D0A000000006D656D5F6D616C6C83
:105A30006F633A20616C6C6F6361746564206D659F
:105A40006D6F7279206E6F742061626F766520725F
:105A5000616D5F656E642E006D656D5F6D616C6C70
:105A60006F633A20616C6C6F6361746564206D656F
:105A70006D6F72792070726F7065726C7920616CD5
:105A800069676E65642E00006D656D5F6D616C6C9D
:105A90006F633A2073616E69747920636865636B24
:105AA00020616C69676E6D656E7400002DE9F047CA
:105AB00007464FF6FC70C91C01EA000444F6206A50
:105AC0000C2C01D20C2401E054452DD83B4E7068BB
:105AD000874202D3B068874206D339A340F28712C7
