:020000040800F2
:10000000006B01203103000857130008CD120008CF
:1000100055130008030900082D190008000000000E
:10002000000000000000000000000000790200084D
:10003000050A000800000000CD0200089D15000818
:100040004B0300084B0300084B0300084B03000858
:100050004B0300084B0300084B0300084B03000848
:100060004B0300084B0300084B0300084B03000838
:100070004B0300084B0300084B0300084B03000828
:100080004B0300084B0300084B0300084B03000818
:100090004B0300084B0300084B0300084B03000808
:1000A0004B0300084B0300084B0300084B030008F8
:1000B0004B0300080D1600084B0300084B03000813
:1000C0004B0300084B0300084B0300084B030008D8
:1000D0004B0300085D1700084B0300084B030008A2
:1000E0004B0300084B0300084B0300084B030008B8
:1000F0004B0300084B0300084B0300084B030008A8
:100100004B0300084B0300084B0300084B03000897
:100110004B0300084B0300084B0300084B03000887
:100120004B0300084B0300084B0300084B03000877
:100130004B0300089D0B00084B0300084B0300080D
:100140004B0300084B0300084B0300084B03000857
:100150004B0300084B0300084B0300084B03000847
:100160004B0300084B0300084B0300084B03000837
:100170004B0300084B0300084B0300084B03000827
:100180004B0300084B03000800F002F800F064F88D
:100190000AA090E8000C82448344AAF10107DA45E2
:1001A00001D100F059F8AFF2090EBAE80F0013F0D0
:1001B000010F18BFFB1A43F00103184728E30000A2
:1001C00048E300000A444FF0000C10F8013B13F024
:1001D000070408BF10F8014B1D1108BF10F8015BA0
:1001E000641E05D010F8016B641E01F8016BF9D193
:1001F00013F0080F1EBF10F8014BAD1C0C1B09D1EA
:100200006D1E58BF01F801CBFAD505E014F8016B5B
:1002100001F8016B6D1EF9D59142D6D370470000ED
:100220000023002400250026103A28BF78C1FBD8FF
:10023000520728BF30C148BF0B607047642900F0E7
:100240000381732900F0A482002070471FB50EF0CF
:100250003BF81FBD10B510BD00F0EAFA1146FFF7DC
:10026000F5FF04F0E5FF00F008FB03B4FFF7F2FF31
:1002700003BC01F05CFB00002A4B19680868B0E879
:10028000F04F80F30988BFF36F8F4FF0000080F3C9
:10029000118870470000000006480068006880F37D
:1002A000088862B661B6BFF34F8FBFF36F8F00DF70
:1002B00000BF00BF08ED00E0DFF80C00016841F46A
:1002C00070010160704700BF88ED00E0EFF3098026
:1002D000BFF36F8F134B1A681EF0100F08BF20ED8D
:1002E000108A20E9F04F106008B44FF0500080F3FE
:1002F0001188BFF34F8FBFF36F8F0DF013F94FF0DD
:10030000000080F3118808BC19680868B0E8F04F55
:100310001EF0100F08BFB0EC108A80F30988BFF3FD
:100320006F8F704784000020EFF305807047000056
:100330000948804709480047FEE7FEE7FEE7FEE779
:10034000FEE7FEE7FEE7FEE7FEE7FEE704480549B5
:10035000054A064B70470000B115000889010008E6
:1003600000650120006B012000670120006701206B
:10037000704700000FB4044910B503AA029800F0BA
:100380000BFA10BC5DF814FB400000202DE9F04191
:100390000E460446002020622046E168884730B3BC
:1003A000252805D0D4E901219047206A401CF2E7B6
:1003B000E168204600278847050018D0A5F14100D4
:1003C000192802D820354FF40067324629462046C6
:1003D0002760FFF733FF40B1012804D0F61D26F057
:1003E00007060836D8E7361DD6E72846DAE7206A3A
:1003F000BDE8F08170B50C460546012A05D0287885
:10040000800600D5EA69002302E0012305E05B1CB9
:10041000934202D2E05C0028F9D1A869E618C01A1C
:10042000A861286A184428622846AFF3008004E0D7
:10043000D5E9012114F8010B9047B442F8D32846BE
:10044000AFF3008070BD00002DE9F04106460024A6
:1004500010687529314616A510D0AFF3008000282A
:1004600002DA404213A507E031688A0701D512A5D8
:1004700002E0490704D511A5012401E0AFF3008093
:1004800000210A2206F1240709E0B0FBF2FCB0FBD0
:10049000F2F302FB1C00303078541846491C002847
:1004A000F3D123462A463046BDE8F04100F0EDB8CE
:1004B000000000002D0000002B00000020000000C4
:1004C00040EA010310B59B070FD1042A0DD310C8D1
:1004D00008C9121F9C42F8D020BA19BA884201D923
:1004E000012010BD4FF0FF3010BD1AB1D30703D06B
:1004F000521C07E0002010BD10F8013B11F8014B21
:100500001B1B07D110F8013B11F8014B1B1B01D13C
:10051000921EF1D1184610BD10B5431C02E010F830
:10052000011B71B18107FAD14FF0013202C88C1A58
:100530008C4314EAC211F9D0C01A0A0603D0C01EB7
:1005400010BDC01A10BD0A0401D0801E10BD0902E2
:10055000FCD0401E10BD032A40F2308010F0030C86
:1005600000F0158011F8013BBCF1020F624498BF06
:1005700011F801CB00F8013B38BF11F8013BA2F1A3
:10058000040298BF00F801CB38BF00F8013B11F01E
:10059000030300F01381083AC0F0088051F8043BCF
:1005A000083A51F804CBA0E80810F5E7121D5CBF2B
:1005B00051F8043B40F8043BAFF30080D20724BF5E
:1005C00011F8013B11F801CB48BF11F8012B24BFF2
:1005D00000F8013B00F801CB48BF00F8012B704741
:1005E00002F0FF0343EA032242EA024200F002B8AB
:1005F0004FF000020429C0F0128010F0030C00F04C
:100600001B80CCF1040CBCF1020F18BF00F8012BC9
:10061000A8BF20F8022BA1EB0C0100F00DB85FEA97
:10062000C17C24BF00F8012B00F8012B48BF00F863
:10063000012B70474FF0000200B5134694469646D2
:10064000203922BFA0E80C50A0E80C50B1F12001E5
:10065000BFF4F7AF090728BFA0E80C5048BF0CC093
:100660005DF804EB890028BF40F8042B08BF7047F1
:1006700048BF20F8022B11F0804F18BF00F8012B63
:10068000704770477047704770472DE9F0470D4637
:1006900099469246044600F124080168880604D56C
:1006A000E06921F01001216000E00120A84201DD95
:1006B000471B00E00027A1697A1902EB0900081A1C
:1006C000A0612078C00602D42046AFF30080002647
:1006D00008E0D4E901211AF806009047206A401C7E
:1006E000761C20624E45F4DB2078C0060AD52046F1
:1006F000AFF3008006E0D4E9012130209047206A62
:10070000401C2062381EA7F10107F4DC07E0D4E9A1
:10071000012118F805009047206A401C2062281E1D
:10072000A5F10105F3DC2046AFF300802078000638
:1007300002D50220BDE8F0870120FBE701694A1CD1
:1007400002610878704700B58FB0CDE90131002112
:10075000059105497944CDE9031011466846FFF734
:1007600015FE0FB000BD0000E5FFFFFF10B54369A7
:1007700013B1AFF3008001E0FFF73CFE012010BD94
:10078000127800F124010A7000224A700122EDE77C
:1007900011684FF0FF32E9E7074B70B50D467B4417
:1007A000FFF7D1FF0446284600F03EF810B14FF0A5
:1007B000FF3070BD204670BDDF32000010B5203A1A
:1007C000C0F00B80B1E81850203AA0E81850B1E80A
:1007D0001850A0E81850BFF4F5AF5FEA027C24BFC0
:1007E000B1E81850A0E8185044BF18C918C0BDE8B7
:1007F00010405FEA827C24BF51F8043B40F8043B80
:1008000008BF7047D20728BF31F8023B48BF11F834
:10081000012B28BF20F8023B48BF00F8012B70478E
:1008200000487047A0640120007B00F08000704702
:100830007546FFF7F5FFAE4605006946534620F0C2
:100840000700854618B020B5FFF780FDBDE82040C1
:100850004FF000064FF000074FF000084FF0000B7C
:1008600021F00701AC46ACE8C009ACE8C009ACE82F
:10087000C009ACE8C0098D4670470446AFF300805C
:100880002046FFF7F2FC10B50121022000F0A0FD88
:100890000121042000F09CFD0121082000F098FDBA
:1008A0000121102000F094FD0121202000F090FD96
:1008B0000121402000F08CFD0121BDE81040802086
:1008C00000F086BD10B50021022000F081FD00215E
:1008D000042000F07DFD0021082000F079FD0021BA
:1008E000102000F075FD0021202000F071FD002196
:1008F000402000F06DFD0021BDE81040802000F098
:1009000067BDFEE7034800220260426053213120A8
:1009100000F096BE200000203EB50121072000F027
:1009200057FD0121880300F077FD012000F0CAFD8A
:100930008620009003208DF8050002208DF8040029
:1009400000242D4D8DF806408DF807406946284655
:1009500000F06EFC0B220121284600F0A5FC0B22C2
:100960000221284600F0A0FC0B220721284600F0B7
:100970009BFC3220214D00906946284600F058FC2F
:100980000B220121284600F08FFC0B22042128466F
:1009900000F08AFC0B220521284600F085FC4FF46C
:1009A0006050174D00906946284600F041FC0B222C
:1009B0001146284600F078FC0B220C21284600F056
:1009C00073FC0B220D21284600F06EFC3D208DF8B3
:1009D000080006208DF809008DF80A4001208DF8E6
:1009E0000B0002A800F0B8FC00F04EFA08B100209D
:1009F0003EBD01203EBD0000000002400008024054
:100A0000000402407047000001494861704700003F
:100A100000900240044A0029D16901D0014300E05E
:100A20008143D161704700000090024005490028D1
:100A3000886902D040F0020001E020F002008861E5
:100A40007047000000900240F0B5124F00234FF0B5
:100A5000004C44F2F45E561E786013E000EB431441
:100A6000C4F800C0C3EBC31505EB450501EB8505D4
:100A7000C4E901E5B34203D204F12005E56000E0DA
:100A8000E0605B1C9342E9D30349C8600348B86047
:100A9000F0BD00005400002000900240A0020020A1
:100AA00005490028886902D040F4005001E020F494
:100AB000005088617047000000900240F0B50F4C74
:100AC00000234FF48017561E206011E000EB431402
:100AD0002760C3EBC31505EB450501EB8505A56054
:100AE000B34203D204F12005E56000E0E0605B1C46
:100AF0009342EBD302490861F0BD0000540000208E
:100B00000090024002680A430260704710B501215C
:100B10004C06204600F068FC2046BDE8104000214D
:100B200000F062BC01B581B001980090002801D0AE
:100B3000401EFAE70CBD000038B5074CA06940F430
:100B40008010A061A06900904FF6FF70FFF7EAFFE8
:100B50000098A06138BD0000009002400148006884
:100B6000806870475400002002680021002A08DBDA
:100B70000268120405D40268D20502D50068C0F3E9
:100B80000D41084670470000034900200968C90765
:100B900000D00120704700000090024010B5094CC1
:100BA00001E004F013FB2068FFF7DEFF0028F8D116
:100BB0004020FFF729FFBDE810404FF48030FFF7D9
:100BC00023BF0000580000202DE9F04786B0002721
:100BD000044601200097974ECDE9000730698A4608
:100BE00020F01C0502A800F023FC93490398934AC7
:100BF0000144914202D245F0080516E09049914A1D
:100C00000144914202D245F00C050EE08E498F4A14
:100C10000144914209D38E4908448E49884202D248
:100C200045F0040501E045F0100535614FF4004240
:100C30000021504600F0B0FA4FF400684FF48049AC
:100C4000A0B18548FFF76EFF206898B3834D0198E7
:100C50000121401C0190504600F0C6F9400702D423
:100C60000198A842F3D30198A84201D100973CE033
:100C70004FF4805200215046019700F08DFA00B9E0
:100C8000009701980121401C0190504600F0ACF9FA
:100C9000800602D40198A842F3D30198A842E5D077
:100CA0001F215046019700F09FF9C10603D5C4F8F3
:100CB000208001E007E02762400701D5676112E06C
:100CC000C4F814900FE0206A6169C00840EA51003E
:100CD00082B20021504600F05FFA00B900976FF031
:100CE0007F40FFF71FFF009818B9C4F81490C4F8AC
:100CF000208030685A490840D4E901121143E26863
:100D000054F8103F1A43114362681143A26811431B
:100D1000E26811432269114354F8142F11436268A9
:100D20001143A2681143E268114322691143014350
:100D3000316035684FF6FF773846FFF7F3FE3560D0
:100D4000F4E905010843D4E902121143084321697B
:100D5000084361690843A1690843E1690843706079
:100D600075683846FFF7DEFE7560206AB060606A1D
:100D7000F060B0694FF641710840D4E90B1211439D
:100D8000238D626B42EA03421143A26B1143E26B73
:100D900011430143B161B5693846FFF7C3FEB56140
:100DA000D4E910010843F061F5693846FFF7BAFE4F
:100DB000F5612C4DA8692C490840D4E91212114361
:100DC000D4E914231A431143A26D1143E26D114378
:100DD000226E1143626E1143A26E11430143A96159
:100DE000AE693846FFF79EFEAE61D4E91B010843A9
:100DF000616F54F8782F11430843616840EA81001D
:100E0000A168084340F4000028602C683846FFF7CA
:100E100089FE2C60286840F0800028602C683846E5
:100E2000FFF780FE2C600098012800D0002006B05B
:100E3000BDE8F0870080024000D3CEFEC0E1E400B0
:100E400040F1E9FD40787D0100796CFC005A6202B6
:100E5000001F0AFA80F0FA02FFFF0F00FFFF0400F4
:100E60000F8120FF00900240233FDEF8054B8A8867
:100E7000184402640A78D1F8011042EA0121416461
:100E8000704700000080024010B5B0B001214FF063
:100E9000606000F09DFAFFF739FE00F0FDF8FFF703
:100EA00073FE0128FBD0684600F00FF90120009086
:100EB00000204FF40071CDE90A1009040790119049
:100EC000CDE920010E90149013900A1115902590F1
:100ED000269023920420CDE9280180032A908001E6
:100EE0002B9040122C9040002E9001216846FFF775
:100EF0006BFEC4B2012C03D101210348FFF78AFD28
:100F000030B0204610BD00004000010038B500217F
:100F1000094C00910028206802D040F0040001E054
:100F200020F004002060206800904FF6FF70FFF76B
:100F3000F9FD0098206038BD0080024038B50021DE
:100F4000094C00910028206802D040F0080001E020
:100F500020F008002060206800904FF6FF70FFF737
:100F6000E1FD0098206038BD0080024010B5094CBA
:100F70000020216804F040FE0020616804F03CFE7F
:100F80000020A16804F038FEE168BDE810400020B0
:100F900004F032BE2800002070B5A021002004F02B
:100FA00037FE104CA0212060002004F031FE41F6F5
:100FB000C45560602946002004F02AFEA06029463E
:100FC000002004F025FEE060216831B1616821B1A4
:100FD000A16811B108B1002070BDFFF7C7FF012063
:100FE00070BD00002800002018B500220092124AAF
:100FF00013694FF6FF7403F01C0304EAC020184382
:101000004FF4F86303EA8111014321F0020040F03C
:101010000100106109490098401C00901069C00748
:1010200002D000988842F6D30098884201D100206F
:1010300018BD506980B218BD00800240FFFF040057
:1010400070B5134C00231A4621680D68002D0BDA89
:10105000104916464B691B0602D580234B618E60F2
:1010600002604260826070BD0D682D040AD40D6874
:10107000ED0507D50D68AD0504D50A68C2F30D432B
:101080008A681B1FCD6825600360C0E9012170BD1F
:1010900058000020009002400248016841F0010120
:1010A000016070470090024010B50120FFF746FF35
:1010B0000120FFF72BFFFFF73FFD0120FFF7F0FCBA
:1010C000BDE810400120FFF7B1BC01210160002103
:1010D000416081604FF48042C160C0E90412D210C7
:1010E0008161C0E9071241628162C16201634163AB
:1010F00040228163C0E90F122022C0E91121C1649E
:101100000165416581658022C165C0E9181281666B
:10111000C16601674167D2048167C0E91F1252109E
:10112000C0E921211311C0E92331C0F89410C0F89F
:101130009810C0F89C10C0E928125212C0F8A820DC
:101140009201C0F8AC205212C0E92C21C0F8B810AE
:10115000704700000E4A11680B68002B01DA00206E
:101160007047C0F30C004860086840F040500860C9
:10117000086840F000400860064843695B0703D5F3
:101180000423436100234360C86810600120704756
:10119000540000200090024038B500230093114B0A
:1011A0001C694FF6FF7504F01C0405EAC0202043BB
:1011B0004FF4F86404EA8111014341F003005A61DD
:1011C000186109490098401C00901869C00702D0B6
:1011D00000988842F6D30098884201D1002038BD9B
:1011E000012038BD00800240FFFF0400094810B50F
:1011F000006810F0FF0F09D05021EFF3118081F348
:101200001188BFF34F8FBFF36F8F10BD0BF058FEE7
:10121000002010BD04ED00E00449096811F0FF0F43
:1012200002D080F3118870470BF086BE04ED00E019
:10123000F0B5002201274FF0030C0B6807FA02F506
:101240002B40AB422CD1066853000CFA03F4A643A2
:1012500006600E79D0F800E09E4046EA0E06066071
:101260000E79012E01D0022E12D18668A643866027
:101270004E79D0F808E09E4046EA0E068660466841
:10128000AE43466045688E799640B6B235434560B8
:10129000C568A543C560CC799C40C3681C43C46045
:1012A000521C102AC9D3F0BD4B07DB0E9A40C90867
:1012B00010B500EB8100016A0F249C40A14301623C
:1012C000016A1143016210BD01837047FEE700000F
:1012D0001CB50121112000F07BF81C20009000209B
:1012E0008DF8040003208DF8050001248DF80740D7
:1012F00069460648FFF79CFF02208DF8070000941E
:1013000069460348FFF794FF1CBD0000001002402F
:10131000000002407CB50121102000F059F80120A6
:101320008DF8040000228DF8062003218DF80510A9
:10133000074D4FF4C0448DF80700009469462846D5
:10134000FFF776FF21462846FFF7BEFF7CBD000071
:1013500000100240FEE7704730B50F23C2780178D5
:101360000125FAB1144A126801F1E02102F4E062A9
:10137000C2F5E062C2F30722C2F10404D34042780E
:10138000A24084781C401443220181F80024007894
:1013900000F01F018D404009800000F1E020C0F8FE
:1013A000005130BD01F01F0085404809800000F168
:1013B000E020C0F8805130BD0CED00E00249084348
:1013C00002490860704700000000FA050CED00E0DB
:1013D000044A0029116801D0014300E081431160F3
:1013E0007047000030380240044A0029116801D0DB
:1013F000014300E081431160704700001038024053
:10140000044A0029116801D0014300E081431160C2
:101410007047000040380240044A0029116801D09A
:10142000014300E0814311607047000044380240EE
:1014300070B5204B1968204C11F00C0104D01F4EE0
:10144000042903D0082903D004601BE0066019E0DA
:10145000184A121F1168C1F38055116801F03F014D
:1014600015B1B6FBF1F101E0B4FBF1F114681268BB
:10147000C4F388146143C2F30142521C5200B1FB11
:10148000F2F1016019680F2202EA11110C4A545C52
:101490000168E14041601C68072505EA9424145D59
:1014A00021FA04F484601B6805EA5333D25CD1400E
:1014B000C16070BD083802400024F40040787D010E
:1014C000440000200149C1F8DC00704700002742B9
:1014D0000CB50022274900920192086840F4803040
:1014E00008604FF4A043086800F4003001900098B1
:1014F000401C0090019810B900989842F3D10868F8
:10150000800334D5012001901A484030026842F02F
:10151000805202601848026842F440420260154856
:10152000083002680260026842F400420260026809
:1015300042F4A0520260031F104A1A600A6842F087
:1015400080720A600A689201FCD50D4940F205726A
:101550000A60016821F003010160016841F00201A5
:1015600001600168C1F381010229FAD10CBD019229
:101570000CBD0000003802400070004019544007C4
:10158000003C02404FF0E0210428086903D020F01D
:1015900004000861704740F00400FAE710B50CF051
:1015A00037FC012803D0BDE810400CF093B810BD03
:1015B000124810B5016841F47001016010480168DB
:1015C00041F0010101600E4A0021083211600268F9
:1015D0000C4B1A400260031D0B4A1A60026822F489
:1015E0008022026006480C300160FFF771FF03495A
:1015F0004FF000608039086010BD000088ED00E009
:1016000000380240FFFFF6FE1030002410B50A4CEF
:101610000121204600F04FF8012807D107490A6848
:101620004868521C40F100000A6048602046BDE84E
:101630001040012100F032B80004004020000020DA
:101640007FB50D46044601210220FFF7D9FE019423
:10165000ADF800500024104DADF80240ADF8084040
:101660006946284600F03CF801221146284600F061
:101670002EF80121284600F014F81D208DF80C00EA
:1016800001208DF80D008DF80E408DF80F0003A895
:10169000FFF762FE7FBD000000040040C9430182E5
:1016A00070470029018802D041F0010101E021F0DA
:1016B00001010180704702460020138A92890B4283
:1016C00002EA010202D0002A00D001207047002A5D
:1016D000828901D00A4300E08A438281704700007A
:1016E00030B50288164C174DA0420DD0A8420BD041
:1016F000B0F1804F08D0144B984205D0134B98425C
:1017000002D0134B984203D122F070034A881A4347
:10171000104B984206D0104B984203D022F44073ED
:101720000A891A4302804A68C2620A880285A04276
:1017300001D0A84201D1897A01860121818230BD80
:101740000000014000040140000400400008004087
:10175000000C0040001000400014004038B51F4D40
:1017600040F22551284600F050F81D4CD8B12846CB
:1017700000F0D8F8C1B22088020417D443044FF017
:10178000000204D50A290DD140F4004023E00D29C0
:101790001FD0C0F30D03134D401C80B2E9542080CC
:1017A000C72800D922802088000411D50E4800687F
:1017B00000280DD069460CF057FA0098002807D091
:1017C0000A494FF080500860BFF34F8FBFF36F8F0F
:1017D00038BD40F480402080E5E700000010014063
:1017E0003C000020D80100200800002004ED00E0AB
:1017F000C943018070470029818902D041F400511A
:1018000001E021F400518181704770B501F01F059E
:1018100001260024C1F3421306FA05F2012B0FD072
:10182000022B0FD0838A4FEA11210088134206FA57
:1018300001F600EA060001D000B10124204670BD87
:101840008389F0E7038AEEE710B5C1F3421301F094
:101850001F040121A140012B07D0022B07D0143017
:10186000002A026805D00A4304E00C30F8E7103083
:10187000F6E78A43026010BD7FB50446008A0D4634
:10188000C98820F4405001432182A08941F20C61B3
:101890008843A9882A8911436A8902431143A18197
:1018A000A08A20F44071A8890843A0826846FFF707
:1018B000BFFD1A48844202D01948844201D10398DE
:1018C00000E00298A189090400EBC00101EB0010BF
:1018D000296801D5490000E08900B0FBF1F06422DD
:1018E000B0FBF2F109010B096FF018056B4300EB37
:1018F0008300A3891D044FF0320306D503EBC0001B
:10190000B0FBF2F000F0070005E003EB0010B0FBC5
:10191000F2F000F00F00084320817FBD001001406D
:10192000001401408088C0F308007047FEE770474C
:1019300010B501F0E3FEBDE810400022024941F27B
:10194000883007F09FB900003119000810B504462F
:101950000420FFF717FE0A484FF47A71047014FB55
:1019600001F1012242804FF0E020026942F00202C0
:1019700002614161016941F00101016110BD000096
:101980003800002070B50546C0EBC500324900EBB9
:10199000800001EBC004042D06D330A340F2812265
:1019A00037A13EA0FEF7E6FC2078002842D0C5EB28
:1019B000C501294B01EB810103EBC1030026012284
:1019C0000C3301280CD0022811D003283FD0BDE8E9
:1019D000704022A340F2C5223BA130A0FEF7CABC52
:1019E000022020706670A2703046E6700DE0A0788C
:1019F000401E10F0FF00A0701CD1E078401CC0B267
:101A0000E070042807D0A07060782A46BDE87040D6
:101A1000194600F063B960780146401C02280AD2DA
:101A2000314D05EB81010D1D05D0496819B160707C
:101A3000A270E67070BDD4F8105125B1002118468F
:101A4000D4F81421A8472670C4F8106170BDA068AE
:101A5000401EA060F7D070BD245D01202E2E5C4C8E
:101A60005749505C6C7769702D312E342E315C7380
:101A700072635C636F72655C646E732E630000005A
:101A8000617272617920696E646578206F75742067
:101A90006F6620626F756E6473000000417373653A
:101AA0007274696F6E2022257322206661696C65ED
:101AB00064206174206C696E6520256420696E2045
:101AC00025730D0A00000000756E6B6E6F776E2037
:101AD000646E735F7461626C6520656E74727920E8
:101AE00073746174653A00003401002038B50F4802
:101AF0000F4C20F00300A0600EA003F05FF80090F0
:101B00006068002811D10BF0A5F8606000280CD0A7
:101B100000220C490AF000FF00220B4960680BF01C
:101B2000A6F86946002000F0ABF938BD87610120B6
:101B3000280100203230382E36372E3232322E3203
:101B40003232000088E30008711B0008032210F8FD
:101B5000011BB2EB911F08D002E0491EC9B2401C24
:101B60000029FAD101780029F1D1401C704700000A
:101B70002DE9FE4F16461289B2F5007F70D81A2A59
:101B80006ED3534C00233046A16805F011FB318918
:101B9000884265D1A768A046388803F0FBFA04287C
:101BA0005ED2C0EBC0004B4900EB800001EBC004EB
:101BB0002078022854D14FF0030984F80090F87877
:101BC00000F00F006071B88803F0E4FA8346F888EB
:101BD00003F0E0FA0546B8784FF0000A000664D535
:101BE0006079E0BBBBF1010F5FD1D8F8080004F1C8
:101BF0000C010C308B4603464F4610F8012BB7EB17
:101C0000921F10D009E091F800C090F80080C44500
:101C10004BD1521E401CD2B2491C002AF3D102788B
:101C2000491C002AE9D11846FFF790FF4FF480784D
:101C30004FF48069001D36E0FFF788FF01680091CE
:101C40004168074601910089ADF80800BDF8000021
:101C5000404520D1BDF8020040451CD101E024E000
:101C600030E0BDF80800484515D1019803F0A9FA05
:101C70001949A060884200D9A160D7F80A00C4F8C9
:101C80000C01D4F81031EBB104F586715846D4F844
:101C90001421984716E0BDF8080003F07BFA6D1E8A
:101CA0003844ADB20A30002DC6D1D4F810312BB172
:101CB000002104F10C00D4F81421984784F800A006
:101CC000C4F810A13046BDE8FE4F05F0FBBA000095
:101CD00028010020245D0120803A09002DE9F04709
:101CE000174688460446022806D33AA34FF40F72DB
:101CF00041A147A0FEF73EFB504810EB840602D0FE
:101D000050F8240030B933A340F23D224CA140A04A
:101D1000FEF730FB00224FF48871104604F098FE65
:101D2000050051D0286830B12AA340F243224DA1CA
:101D300037A0FEF71FFB6C684FF000093846C4F867
:101D40000090C4F80490C4F8089003F023FA24F833
:101D5000020B012004F8020B020224F8082BA8F160
:101D600001082346641C002003E0401C04F8011B0A
:101D7000C0B218F8011F2E2901D00029F5D1187022
:101D800098F800000028ECD104F8019B62F30F07DB
:101D900062F31F472760A888201A001D81B22846D9
:101DA00005F0D2FB254C31460C3C352260680AF028
:101DB00043FE32463523294660680AF071FF044627
:101DC000284605F07FFA01E04FF0FF342046BDE8D9
:101DD000F08700002E2E5C4C5749505C6C77697080
:101DE0002D312E342E315C7372635C636F72655CCF
:101DF000646E732E63000000646E732073657276E8
:101E00006572206F7574206F66206172726179004F
:101E1000417373657274696F6E2022257322206688
:101E200061696C6564206174206C696E652025644D
:101E300020696E2025730D0A000000003401002087
:101E4000646E732073657276657220686173206EAC
:101E50006F204950206164647265737320736574E8
:101E60000000000070627566206D757374206265F5
:101E700020696E206F6E65207069656365000000E3
:101E800002280CD2064A5268002A08D0002906D03F
:101E90000968002903D0024A0C3242F8201070472A
:101EA0002801002010B500F00BF8BDE8104000221A
:101EB00002494FF47A7006F0E5BE0000A51E000846
:101EC000064810B54068002807D000242046FFF7D8
:101ED00059FD641CE4B2042CF8D310BD2801002085
:101EE00010B504460068417800290DD002290BD0B6
:101EF0000078102806D01CA340F2B15224A12CA0D7
:101F0000FEF738FAFB2014E0426812B10278102A7A
:101F100001D0FA200DE0227A032A01D0022907D04D
:101F2000D10701D003F0F8FF2068816A51B907E0BA
:101F3000F32020712068BDE810400C3006F07ABE16
:101F4000406A30B108A340F2BC5224A118A0FEF7A9
:101F500011FA216804204870206884622068BDE876
:101F6000104000F049B800002E2E5C4C5749505CE0
:101F70006C7769702D312E342E315C7372635C6125
:101F800070695C6170695F6D73672E6300000000AB
:101F90006D73672D3E636F6E6E2D3E747970652094
:101FA0003D3D204E4554434F4E4E5F54435000003C
:101FB000417373657274696F6E20222573222066E7
:101FC00061696C6564206174206C696E65202564AC
:101FD00020696E2025730D0A00000000616C726597
:101FE0006164792077726974696E67206F7220630B
:101FF0006C6F73696E6700002DE9F041040006D133
:1020000053A34FF43C725CA15FA0FEF7B3F92078B4
:10201000102806D04EA340F2F12266A15AA0FEF786
:10202000A9F96078042806D049A340F2F22269A1F8
:1020300055A0FEF79FF9606830B945A340F2F3223E
:102040006DA151A0FEF796F9A06A30B940A34FF4F4
:102050003D726EA14CA0FEF78DF9A06A007A00F0E7
:10206000010700F00206032824D000251DB100213D
:10207000606807F021F86068017E01291CD037B143
:10208000002109F00BF90021606806F096FF1EB1EF
:102090000021606809F034FB9DB1042200216068D2
:1020A00008F020FB0021606807F006FC606807F07C
:1020B000F3F80BE00125D9E7002106F07EFF002DA3
:1020C000F4D132463946606809F066FB20B1606899
:1020D000007E012821D027E0A16A00200871A062BB
:1020E000607035B16060E36A1BB1002204212046B4
:1020F00098472FB1E36A1BB100221146204698474A
:102100002EB1E36A1BB1002202212046984704F158
:102110000C00BDE8F04106F08DBD0DA340F22D325C
:1021200041A119A0FEF726F94849606809F0E8FACC
:1021300004224749606808F0D5FA4649606807F00C
:10214000BBFB21466068BDE8F04106F0B5BF00006A
:102150002E2E5C4C5749505C6C7769702D312E34B3
:102160002E315C7372635C6170695C6170695F6D74
:1021700073672E6300000000696E76616C696420ED
:10218000636F6E6E00000000417373657274696F57
:102190006E2022257322206661696C65642061745B
:1021A000206C696E6520256420696E2025730D0AF8
:1021B000000000007468697320697320666F7220E4
:1021C000746370206E6574636F6E6E73206F6E6CD7
:1021D00079000000636F6E6E206D75737420626508
:1021E00020696E207374617465204E4554434F4ED0
:1021F0004E5F434C4F53450070636220616C7265C3
:1022000061647920636C6F7365640000636F6E6E48
:102210002D3E63757272656E745F6D736720213D2C
:10222000204E554C4C000000436C6F73696E672064
:1022300061206C697374656E20706362206D6179D2
:10224000206E6F74206661696C210000F5870008BC
:1022500061790008312B000810B504460068436816
:10226000002B11D0017801F0F001102919D020299C
:1022700011D040290AD021A340F2034229A12FA066
:10228000FEF778F8FA202BE0F42029E01846A16840
:1022900006F0ACF824E0A2891846A1680AF0CCFB4D
:1022A0001EE0417809B1F7201AE006F009FB20682A
:1022B000A289A16840682C4B07F0CAF8207180B948
:1022C0002068032290F8201042702068C1F340017A
:1022D000002910F8201F0AD041F004010170FB20F2
:1022E00020712068BDE810400C3006F0A3BC21F03E
:1022F000040101702068846210BD00002E2E5C4C29
:102300005749505C6C7769702D312E342E315C73D7
:1023100072635C6170695C6170695F6D73672E6385
:1023200000000000496E76616C6964206E6574631C
:102330006F6E6E20747970650000000041737365E4
:102340007274696F6E2022257322206661696C6544
:1023500064206174206C696E6520256420696E209C
:1023600025730D0A000000006D23000870B51546A6
:1023700004000CD06078032806D023A340F2B632C4
:102380002BA133A0FDF7F6FFA06A18B10FE06FF0A4
:10239000050070BD94F82000400709D41AA340F24C
:1023A000B73236A12AA0FDF7E5FFA06A00B105719A
:1023B0002078102803D115B9204606F081FA94F848
:1023C0002000002640F3800520F0040084F820005F
:1023D000A66266706D1C09D1FEF708FF94F908101B
:1023E00011F1090F00DB2672FEF716FFE36A1BB13D
:1023F00000220221204698471DB104F10C0006F08E
:1024000019FC002070BD00002E2E5C4C5749505C1A
:102410006C7769702D312E342E315C7372635C6180
:1024200070695C6170695F6D73672E630000000006
:10243000636F6E6E2D3E7374617465203D3D204E5A
:102440004554434F4E4E5F434F4E4E45435400005C
:10245000417373657274696F6E2022257322206642
:1024600061696C6564206174206C696E6520256407
:1024700020696E2025730D0A0000000028636F6E2E
:102480006E2D3E63757272656E745F6D7367202189
:102490003D204E554C4C29207C7C20636F6E6E2D68
:1024A0003E696E5F6E6F6E5F626C6F636B696E67C5
:1024B0005F636F6E6E6563740000000070B5016845
:1024C0000446487800281BD0022819D003280CD0D5
:1024D0000878102806D030A340F2473238A140A037
:1024E000FDF748FFFB20207131E091F82000400704
:1024F00006D429A340F24A3244A139A0FDF73AFF9D
:10250000206803F009FD20684268A2B1017801F05B
:10251000F001102927D00025202905D0402908D115
:10252000104605F0BDFF04E0D561206840680AF060
:10253000A1FB206845602068C36A43B100221146B0
:1025400098472068C36A13B1002202219847206887
:102550000C3006F07AFB00281CD02068BDE87040E3
:102560000C3006F067BB816A09B9406A30B10AA332
:1025700040F25F322DA11AA0FDF7FCFE2168042075
:10258000487003202072206884622068BDE8704093
:10259000FFF732BD70BD00002E2E5C4C5749505CD9
:1025A0006C7769702D312E342E315C7372635C61EF
:1025B00070695C6170695F6D73672E630000000075
:1025C0006D73672D3E636F6E6E2D3E74797065205E
:1025D0003D3D204E4554434F4E4E5F544350000006
:1025E000417373657274696F6E20222573222066B1
:1025F00061696C6564206174206C696E6520256476
:1026000020696E2025730D0A00000000626C6F6364
:102610006B696E6720636F6E6E65637420696E20F0
:1026200070726F677265737300000000616C726591
:102630006164792077726974696E67206F722063B4
:102640006C6F73696E67000010B5044600686FF028
:102650000C024068002825D0217C0029A16801D007
:10266000006800E040680860002020712068017860
:1026700001F0F001102921D0202915D040290CD0DB
:1026800013A340F29B521CA121A0FDF773FE20680A
:10269000BDE810400C3006F0CDBA217C11B1406885
:1026A000007C11E02271F2E7217C406809B1408A88
:1026B0000AE0017C4907F5D5808A05E0217C406865
:1026C00009B1408B00E0808BE1680880DFE7000003
:1026D0002E2E5C4C5749505C6C7769702D312E342E
:1026E0002E315C7372635C6170695C6170695F6DEF
:1026F00073672E6300000000696E76616C69642068
:102700006E6574636F6E6E5F7479706500000000B3
:10271000417373657274696F6E202225732220667F
:1027200061696C6564206174206C696E6520256444
:1027300020696E2025730D0A0000000010B50446C4
:10274000002020712068406810B9204604F0CEFFB8
:102750002068BDE810400C3006F06CBA2DE9F0415D
:102760000546002028712868416899B10078102832
:1027700010D1AC684FF480384FF6FF77444501D351
:102780003E4600E0A6B228683146406808F0E4FD05
:10279000A41BF3D12868BDE8F0410C3006F04ABA1A
:1027A00010B50446006890F9081011F1090F07DB15
:1027B0000178102901D0FA2102E0417831B1FB21E2
:1027C0002171BDE810400C3006F034BA4168002990
:1027D00020D0012141702068816A09B9406A30B176
:1027E0000DA340F24C5216A11CA0FDF7C3FDE068FA
:1027F00030B909A340F24E5223A118A0FDF7BAFD4B
:10280000206884622168002048622068BDE810408A
:1028100000F044B8F321D3E72E2E5C4C5749505CAE
:102820006C7769702D312E342E315C7372635C616C
:1028300070695C6170695F6D73672E6300000000F2
:10284000616C72656164792077726974696E672062
:102850006F7220636C6F73696E67000041737365FC
:102860007274696F6E2022257322206661696C651F
:1028700064206174206C696E6520256420696E2077
:1028800025730D0A000000006D73672D3E6D7367A0
:102890002E772E6C656E20213D2030002DE9F0470B
:1028A000044690F82000A16A4FF0000880070E7CD3
:1028B00001D4700701D5012700E0002734B959A3DE
:1028C00040F2C34261A165A0FDF754FD6078012884
:1028D00006D054A340F2C4426BA160A0FDF74AFDAC
:1028E000A06A30B94FA340F2C5426FA15BA0FDF7CB
:1028F00041FD606830B94BA340F2C64271A157A0B8
:10290000FDF738FDD4E90901C968884206D345A31B
:1029100040F2C74271A151A0FDF72CFDA16A606A87
:102920008A6802EB000ACA68111AB1F5803F04D325
:102930004FF6FF7546F0020600E08DB261684FF079
:102940000009B1F86610A94207D20D461FB125B99A
:102950006FF0060616E046F002062844904206D9BB
:1029600030A340F2F5426AA13CA0FDF703FD3346D7
:102970002A465146606809F04DFA060001D0701CE5
:102980003BD187B1A06AC068A8420CD9E36A1BB1E9
:102990002A4603212046984794F8200040F0100072
:1029A00084F8200010E0606840F66932B0F86610E4
:1029B000914203D9B0F86800052805D3E36A1BB13A
:1029C0002A4603212046984716B1701C14D014E003
:1029D000606A28446062A16ACA68904200D027B148
:1029E000C8604FF00108C4F82490606807F030FB1D
:1029F000B8F1000F04D10DE07FB1A16AC1F80C90CD
:102A0000A06A0671C4F8289084F8019004F10C00C3
:102A100006F010F90020BDE8F087606807F018FBA9
:102A2000F8E700002E2E5C4C5749505C6C776970BB
:102A30002D312E342E315C7372635C6170695C6180
:102A400070695F6D73672E6300000000636F6E6EC8
:102A500020213D204E554C4C000000004173736511
:102A60007274696F6E2022257322206661696C651D
:102A700064206174206C696E6520256420696E2075
:102A800025730D0A00000000636F6E6E2D3E737497
:102A9000617465203D3D204E4554434F4E4E5F5777
:102AA0005249544500000000636F6E6E2D3E637501
:102AB0007272656E745F6D736720213D204E554CB8
:102AC0004C000000636F6E6E2D3E7063622E746367
:102AD0007020213D204E554C4C000000636F6E6EFF
:102AE0002D3E77726974655F6F6666736574203C0E
:102AF00020636F6E6E2D3E63757272656E745F6DCE
:102B000073672D3E6D73672E772E6C656E00000027
:102B1000646F5F77726974656D6F72653A20696E74
:102B200076616C6964206C656E67746821000000D2
:102B30002DE9F0410E46040006D133A34FF4B172E3
:102B40003BA13FA0FDF716FC00276760FEF74EFB98
:102B50002672FEF761FB65786770E36A7BB100223D
:102B6000042120469847E36A4BB1002211462046D3
:102B70009847E36A1BB1002202212046984704F1DE
:102B80001000804606F03AF818B10021404606F0E1
:102B900005F804F11400804606F030F818B1002161
:102BA000404605F0FBFF012D0FD0042D0DD0032D65
:102BB0000BD0A06A002824D0BDE8F04112A34FF446
:102BC000C9722AA11EA0FDF7D5BB94F82000C0F35E
:102BD000800120F0040084F82000002911D1A06AAF
:102BE00030B909A340F28B1227A115A0FDF7C2FB53
:102BF000A06A067104F10C00A762BDE8F04106F07E
:102C000019B8BDE8F08100002E2E5C4C5749505C8D
:102C10006C7769702D312E342E315C7372635C6178
:102C200070695C6170695F6D73672E6300000000FE
:102C3000636F6E6E20213D204E554C4C000000000D
:102C4000417373657274696F6E202225732220664A
:102C500061696C6564206174206C696E652025640F
:102C600020696E2025730D0A00000000636F6E6EF0
:102C70002D3E63757272656E745F6D7367203D3DA6
:102C8000204E554C4C000000636F6E6E2D3E6375F8
:102C90007272656E745F6D736720213D204E554CD6
:102CA0004C0000002DE9F84F90468946050010D0F1
:102CB000B8F80A002A2866D3D8F804604FF4807A5E
:102CC000344634F80E0F50455DD1207906285AD18C
:102CD00008E02FA340F2BB2237A13BA0FDF74AFB3F
:102CE000BDE8F88F607904284DD1608808284AD162
:102CF000D4F80E000090A169281D05D0686818B1AD
:102D0000814201D1012700E000270FB1012300E03B
:102D1000022304F108026946284600F013FDE0880A
:102D2000504530D1002F2ED0022002F033FAE0803F
:102D3000D4F80E00A0616868C4F80E0095F822006F
:102D4000062806D012A340F211322A491EA0FDF730
:102D500011FBA068C4F81200A089E082A06830606E
:102D6000A089B080D9F80010A160B9F80400A08152
:102D7000D9F80010C6F80610B9F804007081AA69E5
:102D8000414628469047404604F09CFAA8E70000D8
:102D90002E2E5C4C5749505C6C7769702D312E3467
:102DA0002E315C7372635C6E657469665C65746811
:102DB0006172702E630000006E6574696620213DAB
:102DC000204E554C4C000000417373657274696F5E
:102DD0006E2022257322206661696C65642061740F
:102DE000206C696E6520256420696E2025730D0AAC
:102DF00000000000A0E400082DE9F34F80460A20FF
:102E000085B0002402900746A346A2460190A14641
:102E100000904C4904EB840001EB80060390B57CE4
:102E20000A2F18D0002D24D0012D08D0022D06D253
:102E300045A340F22B124EA15DA0FDF79BFAB8F11D
:102E4000000F0CD0D8F800007168884207D160B23A
:102E500007B0BDE8F08F002DE6D167B209E0012D83
:102E600015D0022D05D3F07C504502D361B28246C5
:102E70000191641CE4B20A2CCBD3069881074FF071
:102E8000FF30E5D40A2F15D017DAFCB23AE02D480E
:102E9000039950F821000028F07C05D04845E8D37C
:102EA00061B281460091E4E75845E2D361B28346BE
:102EB0000291DEE70699C907CAD001990A290EDAFC
:102EC000CCB2204804EB840150F8210070B11EA35D
:102ED00040F2711241A136A0FDF74CFA06E00299CA
:102EE0000A2902DB00990A29B2DACCB20A2C06D3ED
:102EF00015A340F283123FA12DA0FDF73BFA204617
:102F000000F098F80A2C06D30FA340F2871239A1DB
:102F100027A0FDF72FFA0B4804EB840100EB810595
:102F2000A87C30B108A34FF4C47237A120A0FDF7EC
:102F300021FAB8F1000F02D0D8F800006860002034
:102F4000E87484E7D86301202E2E5C4C5749505C0E
:102F50006C7769702D312E342E315C7372635C6E28
:102F6000657469665C6574686172702E6300000048
:102F70007374617465203D3D204554484152505F53
:102F800053544154455F50454E44494E47207C7C44
:102F9000207374617465203E3D2045544841525071
:102FA0005F53544154455F535441424C4500000027
:102FB000417373657274696F6E20222573222066D7
:102FC00061696C6564206174206C696E652025649C
:102FD00020696E2025730D0A000000006172705F89
:102FE0007461626C655B695D2E71203D3D204E55BC
:102FF0004C4C000069203C204152505F5441424CEF
:10300000455F53495A4500006172705F7461626C9C
:10301000655B695D2E7374617465203D3D20455488
:10302000484152505F53544154455F454D505459A7
:103030000000000070B50C4E00EB8004002556F82F
:10304000240018B104F03EF946F8245006EB840041
:1030500006498574C57485604560D1F80620C26054
:103060004989018270BD0000D86301208CE300080B
:103070002DE9FC4115460E46040006D145A340F259
:1030800075324EA151A0FDF775F936B941A340F252
:10309000763259A14DA0FDF76DF935B93DA340F247
:1030A000773258A149A0FDF765F90E21304604F0AA
:1030B000BFF918B16FF00100BDE8FC812146286816
:1030C00000F0D6FE08B1534B3CE02868C0F3031172
:1030D0000E2922D0A168636800EA01020B409A42DF
:1030E0000BD080B2A0F57E41A93906D014F10C0FA7
:1030F0002FD0E06868B304F10C05474B474A1878B5
:1031000000EB800102EB81018F7C022F24D32F681A
:1031100049688F4220D102462CE001208DF8000042
:1031200000208DF801005E208DF8020068786B4663
:1031300000F07F008DF80300A8788DF80400E8788F
:103140008DF8050004F123023146204600F086FA8E
:10315000B2E76FF00300AFE7002000EB800102EB65
:1031600081018F7C022F0AD32F6849688F4206D1D4
:10317000C2B21A703146204600F052F89CE7401C5B
:1031800040B20A28E9DB32462946204600F0B6F86C
:1031900092E700002E2E5C4C5749505C6C776970AA
:1031A0002D312E342E315C7372635C6E65746966EA
:1031B0005C6574686172702E630000006E657469EE
:1031C0006620213D204E554C4C0000004173736534
:1031D0007274696F6E2022257322206661696C65A6
:1031E00064206174206C696E6520256420696E20FE
:1031F00025730D0A000000007120213D204E554C22
:103200004C00000069706164647220213D204E55BD
:103210004C4C00008CE30008D0010020D863012052
:1032200070B505460E46134802EB820100EB81049F
:10323000A07C022806D210A34FF4537218A124A038
:10324000FDF798F8A07C022809D1E07CE42806D399
:10325000211D284600F0F0F908B90320A07404F1FC
:103260000C0305F1230231462846BDE8704000F00A
:10327000F5B90000D86301202E2E5C4C5749505CF4
:103280006C7769702D312E342E315C7372635C6EF5
:10329000657469665C6574686172702E6300000015
:1032A0006172705F7461626C655B6172705F6964AA
:1032B000785D2E7374617465203E3D20455448410D
:1032C00052505F53544154455F535441424C450062
:1032D000417373657274696F6E20222573222066B4
:1032E00061696C6564206174206C696E6520256479
:1032F00020696E2025730D0A000000002DE9F74FAC
:1033000082B0884602984FF0FF3B23300090086857
:1033100016465F46029900F0ABFD002829D1D8F887
:103320000000C0F303110E2923D0B8F1000F20D004
:1033300000281ED001214046FFF75EFD04001AD48C
:10334000DFF8DCA004EB84090AEB8905A87C0028DF
:1033500014D0012814D0022809D232A340F2194215
:103360003AA144A0FDF706F8A87C012808D03EB198
:103370000DE06FF00D0005B0BDE8F08F0120A874DE
:103380004146029800F058F90746002EF3D0A87C79
:1033900002280AD3424805F10C0331460470009A12
:1033A000029800F05BF9074638E0D046012835D195
:1033B0000025344640F23E4760892189884207D182
:1033C000206828B117A33A4636A12AA0FCF7D2FFFD
:1033D000207B012803D12468002CEDD175B121890F
:1033E0000022032003F034FB050016D0314603F021
:1033F000EFFD40B1284603F065FF0EE0354630464C
:1034000004F066F94DB158F82900444608B103F0BC
:1034100059FF44F82950002700E05F463846AAE7E4
:10342000D86301202E2E5C4C5749505C6C77697034
:103430002D312E342E315C7372635C6E6574696657
:103440005C6574686172702E630000006172705F69
:103450007461626C655B695D2E7374617465203D97
:103460003D2050454E44494E47206F7220535441F1
:10347000424C4500417373657274696F6E2022255A
:103480007322206661696C6564206174206C696ECA
:103490006520256420696E2025730D0A0000000058
:1034A000D00100206E6F207061636B6574207175B0
:1034B0006575657320616C6C6F7765642100000031
:1034C0002DE9F05FDDF82CB0984691468A4607005A
:1034D00006D132A340F2A5423AA13EA0FCF74AFF32
:1034E00000222A21032003F0B3FA060053D070898A
:1034F0002A2806D229A34FF4966241A135A0FCF7F1
:1035000039FF75680D9805F10E0401F043FEE08067
:1035100097F82200062806D020A34FF49762454969
:103520002CA0FCF727FFD8F80010A160B8F8040021
:10353000A081DBF80010C4F81210BBF80400E08290
:10354000D9F800102960B9F80400A880DAF8001052
:10355000C5F80610BAF8040068810A983146006878
:10356000C4F80E000C980068A0614FF480702080B1
:103570000820608006202071042060714FF4C16033
:10358000A881BA69384690470446304603F09AFE4F
:103590002046BDE8F09F4FF0FF30FAE72E2E5C4C3E
:1035A0005749505C6C7769702D312E342E315C7325
:1035B00072635C6E657469665C6574686172702EB6
:1035C000630000006E6574696620213D204E554CF5
:1035D0004C000000417373657274696F6E20222580
:1035E0007322206661696C6564206174206C696E69
:1035F0006520256420696E2025730D0A00000000F7
:10360000636865636B2074686174206669727374A3
:1036100020706275662063616E20686F6C64207331
:103620007472756374206574686172705F68647227
:1036300000000000A0E400081FB50123064C021D95
:10364000CDE90213CDE9002400F123031946A21F9E
:10365000FFF736FF04B010BD92E300082DE9F041FA
:10366000054690F822004C681E46174688460628F4
:1036700006D00CA340F2A312144915A0FCF77AFE61
:1036800030682060B088A0803868C4F80600B88828
:1036900060810820A08141462846AA69BDE8F04122
:1036A000104700002E2E5C4C5749505C6C776970B7
:1036B0002D312E342E315C7372635C6E65746966D5
:1036C0005C6574686172702E63000000A0E40008FD
:1036D000417373657274696F6E20222573222066B0
:1036E00061696C6564206174206C696E6520256475
:1036F00020696E2025730D0A0000000070B5104D82
:10370000002404EB840005EB8000827C92B1C17C34
:10371000491CC9B2C174F02906D2012A02D0032A79
:1037200006D007E0022905D32046FFF783FC01E01D
:1037300002218174641CE4B20A2CE2D370BD000043
:10374000D86301202DE9F041044690F822001F467D
:1037500015460E46062806D01EA340F2C31227A126
:1037600030A0FCF707FE86B3306870B3214600F046
:103770007FFB50BB3078C0F303100E2826D03946AB
:103780003046FFF739FB00281DDB314A00EB800192
:1037900002EB81000223837484602B68C360AB88D2
:1037A00003820023C37452F821605EB142F82130D5
:1037B0002B4604F1230231462046FFF74FFF3046E7
:1037C00003F080FD0020BDE8F081FFE76FF00D0001
:1037D000F9E700002E2E5C4C5749505C6C776970FD
:1037E0002D312E342E315C7372635C6E65746966A4
:1037F0005C6574686172702E630000006E657469A8
:10380000662D3E6877616464725F6C656E203D3D35
:10381000204554484152505F4857414444525F4C00
:10382000454E0000417373657274696F6E202225E6
:103830007322206661696C6564206174206C696E16
:103840006520256420696E2025730D0A00000000A4
:10385000D863012070B5044640890D460E2842D930
:10386000606801788689CA0714D0012905D006222C
:103870001F49FCF725FE48B10CE0417851B980782A
:103880005E2807D1607B40F0100002E0607B40F0D2
:1038900008006073082E03D0B6F5C16F23D116E07F
:1038A00095F8290080061ED56FF00D01204603F023
:1038B000BFFD38B10FA340F24F5218A120A0FCF772
:1038C00059FD10E02946204600F028FC09E095F853
:1038D0002900800607D5224605F123012846FFF777
:1038E000E1F9002070BD204603F0ECFCF9E7000090
:1038F0008CE300082E2E5C4C5749505C6C77697045
:103900002D312E342E315C7372635C6E6574696682
:103910005C6574686172702E6300000043616E27FD
:1039200074206D6F7665206F7665722068656164BE
:10393000657220696E207061636B65740000000021
:10394000417373657274696F6E202225732220663D
:1039500061696C6564206174206C696E6520256402
:1039600020696E2025730D0A0000000010B50400C8
:1039700005D10AA3742214A116A0FCF7FBFC652054
:1039800084F82A006E2084F82B001D4860611D48D1
:10399000A061204601F018FA002010BD2E2E5C4CCC
:1039A0005749505C6C7769702D312E342E315C7321
:1039B00072635C6E657469665C65746865726E6579
:1039C0007469662E630000006E65746966213D4E61
:1039D000554C4C00417373657274696F6E202225DB
:1039E0007322206661696C6564206174206C696E65
:1039F0006520256420696E2025730D0A00000000F3
:103A0000713000085D4E00082DE9FE438146002517
:103A10006846FDF715FBDDE901710098884681B223
:103A20000322104603F014F806000AD00446791960
:103A300062896068FCF78FFD608924680544002C6A
:103A4000F5D14FF00041C8F800100C484169090653
:103A500003D5802141610021816066B1D9F8102031
:103A6000494630469047040002D0304603F02AFC15
:103A70002046BDE8FE834FF0FF30FAE70090024099
:103A800003490A885206FCD5C2B28A8070470000FA
:103A9000001001400A46032100F040B92DE9FE4F15
:103AA000456804468A4628780007870E794288468A
:103AB000204603F0BDFC00287AD12089042877D362
:103AC0006068007800287FD008287DD14149012610
:103AD0000868C0F303120E2A00D100268946514619
:103AE00000F0C6F900286FD1002E6DD0208908287B
:103AF0006AD3204600F098F9002865D1222120469B
:103B000003F096FC002831D03946204603F090FCA3
:103B100018B131A398223AA147E02189002202205E
:103B200002F096FF06004FD0718907F1080081422C
:103B300005D229A3A1223FA14CA0FCF71BFC2146E2
:103B4000304603F045FA18B123A3A52252A12CE078
:103B500041463046756803F06BFC10B11EA3AB22E2
:103B60000CE0204603F0AEFB344609E06FF0210183
:103B7000204603F05DFC18B117A3B52250A114E054
:103B80006068D9F80010E9605A490026096829617F
:103B900006704680FF2028726E813946204603F069
:103BA00047FC30B10CA3EC2253A130A0FCF7E2FBA0
:103BB0000AE00121CDE90061FF230022CDF808A031
:103BC0000449204600F0A6FB2046BDE8FE4F03F066
:103BD00079BB0000C40100202E2E5C4C5749505C7C
:103BE0006C7769702D312E342E315C7372635C6397
:103BF0006F72655C697076345C69636D702E63000A
:103C000069636D705F696E7075743A206D6F766967
:103C10006E6720702D3E7061796C6F616420746FE7
:103C200020697020686561646572206661696C65F1
:103C3000640A0000636865636B20746861742066C1
:103C40006972737420706275662063616E20686F9C
:103C50006C642073747275637420746865204943C2
:103C60004D502068656164657200000041737365A2
:103C70007274696F6E2022257322206661696C65FB
:103C800064206174206C696E6520256420696E2053
:103C900025730D0A0000000069636D705F696E7026
:103CA00075743A20636F7079696E6720746F206E47
:103CB00065772070627566206661696C65640A00CC
:103CC00069636D705F696E7075743A2072657374A4
:103CD0006F72696E67206F726967696E616C2070C0
:103CE0002D3E7061796C6F6164206661696C6564FA
:103CF0000A000000C001002043616E2774206D6F30
:103D00007665206F766572206865616465722069EA
:103D10006E207061636B6574000000002DE9FE4346
:103D200091460E46074600222421012002F090FE13
:103D300005002DD06889242806D216A34FF4A2725C
:103D40001EA129A0FCF716FB6C68D7F804801C2282
:103D5000267084F801900026A680E680686879685D
:103D60000830FCF7F8FB66806989204600F056F8B9
:103D70006080D8F80C0002900120CDE90060FF239C
:103D800002AA0021284600F071FA284603F09AFAA8
:103D9000BDE8FE832E2E5C4C5749505C6C776970F1
:103DA0002D312E342E315C7372635C636F72655CEF
:103DB000697076345C69636D702E63006368656357
:103DC0006B20746861742066697273742070627508
:103DD000662063616E20686F6C642069636D70207B
:103DE0006D65737361676500417373657274696FA4
:103DF0006E2022257322206661696C6564206174DF
:103E0000206C696E6520256420696E2025730D0A7B
:103E1000000000000A460B21FFF780BF10B501F03B
:103E2000DCF9C04380B210BD70B5002405462646BB
:103E300013E06989686801F0D0F92044010C11FA97
:103E400080F4A87AC00707D0C6F10100C6B2E0B27C
:103E5000C4F3072141EA00242D68002DE9D126B1E1
:103E6000E0B2C4F3072141EA0024E04380B270BD10
:103E7000421C12D088B191F8292092070BD54A68CC
:103E8000824208D0896800EA01030A40934202D1C5
:103E90000143491C01D000207047012070470000F9
:103EA0002DE9F74F8AB004460B9814250026078C9D
:103EB00060680690C08801F086F9C0F30C0100F438
:103EC00000500391089020891438143F1FFA80F99C
:103ED000F81707EB5070C0F3CF00079704908EE0FF
:103EE0000799894501DC012000E000200399089A28
:103EF000C1F30C0111430591002825D048461FFA53
:103F000080FB00221421022002F0A2FD0290002872
:103F100020D06089142806D240A340F2FB224AA197
:103F200051A0FCF727FA0298142206994068FCF782
:103F300012FB0298D0F804A0606828446060608991
:103F4000401B60815D4631E041F4005005900498CB
:103F5000C000D4E74FF0FF300DB0BDE8F08F6689A8
:103F6000AE4200D92E4606B3062001F027FD070019
:103F70004BD06068CDE900063B4602223146032063
:103F800002F014FF5FEA000843D0204603F0A0FBD4
:103F90004048C7E904044146029802F073FFA81B99
:103FA00005042D0C04D02468D9E72468002DD6D14F
:103FB0003546059801F0EEF8AAF806000BF114005A
:103FC00080B201F0E7F8AAF802000021AAF80A106E
:103FD00014215046FFF722FFAAF80A000B980C9A0A
:103FE000029943699847029803F06CF9A9EB0B001A
:103FF0001FFA80F9DDE90301084480B20390B9F1AA
:10400000000F7FF46DAF0020A6E7029803F05AF985
:10401000A0E7384600F040F8F7E700002E2E5C4C91
:104020005749505C6C7769702D312E342E315C739A
:1040300072635C636F72655C697076345C69705F33
:10404000667261672E63000074686973206E65652F
:1040500064732061207062756620696E206F6E65E2
:104060002070696563652100417373657274696FBF
:104070006E2022257322206661696C65642061745C
:10408000206C696E6520256420696E2025730D0AF9
:10409000000000003D4D000810B5040006D106A345
:1040A00040F279220FA112A0FCF764F92146BDE885
:1040B0001040062001F0FCBB2E2E5C4C5749505C92
:1040C0006C7769702D312E342E315C7372635C63B2
:1040D0006F72655C697076345C69705F6672616787
:1040E0002E6300007020213D204E554C4C000000F6
:1040F000417373657274696F6E2022257322206686
:1041000061696C6564206174206C696E652025644A
:1041100020696E2025730D0A000000002DE9F05F74
:1041200045680646884628780421B1EB101F0FD158
:1041300000F00F004FF6FF7101EA8004688801F07B
:1041400042F801467089A04202D33089884203D2E6
:10415000304603F0B7F84EE0304603F0F5F9414839
:104160002969A0F1040A0160EA68DFF8FCB00127C0
:1041700044468146CAF8002094F82900C0070BD0B5
:10418000201D09D0616839B1D9F8000088420ED0ED
:104190002146FFF76DFE50B91FB10027DBF8004044
:1041A00000E02468444500D12468002CE4D157463F
:1041B0004146DAF80000FFF75BFE0028C8D13878E6
:1041C000BA46C0F303100E28C2D0002CC0D0E88835
:1041D00030F0C00005D0304600F04EF906000AD09D
:1041E0007568204C4146103C3046C4E9018504F016
:1041F00003F918B12DE00020BDE8F09F687A01288E
:1042000015D006280ED0112807D04F464146D9F8C0
:104210000000FFF72DFE78B118E04146304608F067
:1042200033FC16E04146304605F0C2FB11E0414642
:104230003046FFF733FC0CE03878C0F303100E284B
:1042400004D0022130467560FFF724FC304603F0AD
:1042500039F800206060A060CAF80000C9F80000CA
:10426000C9E70000C4010020580100202DE9FE43E9
:104270000446DDE90A65C089984617468946012843
:1042800006D00CA340F2393214A117A0FCF772F843
:10429000384600F073FC50B10096CDE9015043461A
:1042A0003A464946204600F035F8BDE8FE836FF0F7
:1042B0000300FAE72E2E5C4C5749505C6C7769700E
:1042C0002D312E342E315C7372635C636F72655CCA
:1042D000697076345C69702E63000000702D3E7248
:1042E0006566203D3D203100417373657274696FCE
:1042F0006E2022257322206661696C6564206174DA
:10430000206C696E6520256420696E2025730D0A76
:10431000000000002DE9F84F0546DDE90BA6C08935
:10432000DDF828B0984617468946012806D02DA307
:104330004FF4277235A138A0FCF71CF8002F3CD0B1
:104340001421284603F074F818B16FF00100BDE89D
:10435000F88F68896C68142806D222A340F2C9221B
:1043600038A12DA0FCF706F884F8088084F809A08D
:10437000386820614520207084F801B0288900F059
:1043800009FFDFF8F08060804FF0000AA4F806A073
:10439000B8F8000000F0FEFEA080B8F80000401C55
:1043A000A8F80000B9F1000F02D0D9F8000000B958
:1043B0007068E060A4F80AA003E068686F460069CE
:1043C0000090308C40B12989814205D93A46314666
:1043D0002846FFF765FDBAE773693A462946304635
:1043E0009847B4E72E2E5C4C5749505C6C77697047
:1043F0002D312E342E315C7372635C636F72655C99
:10440000697076345C69702E63000000702D3E7216
:104410006566203D3D203100417373657274696F9C
:104420006E2022257322206661696C6564206174A8
:10443000206C696E6520256420696E2025730D0A45
:1044400000000000636865636B2074686174206617
:104450006972737420706275662063616E20686F84
:104460006C64207374727563742069705F68647221
:1044700000000000B40100202DE9F14F0027009852
:104480004468207800F00F0005287CD1E08800F017
:104490009AFEC0044FEA104A608800F094FE21782A
:1044A00001F00F01494200EB81001FFA80F90098EA
:1044B00002F085FD584D0646288830440A2809D95F
:1044C0003146204600F0FCFA00285CD028883044B1
:1044D0000A2858D8A8466D684FF0000B0DE06869AF
:1044E000E168884207D1A8692169884203D1A88977
:1044F000A188884204D02F462D68002DEFD106E018
:104500002DB1E08800F05FFEC00424D02EE005202D
:1045100001F054FA05000AD13146204600F0D0FAE5
:10452000B04216DB052001F049FA050011D0202128
:10453000FCF780F80320E877D8F8041029601422EB
:10454000214605F10800C8F80450FCF704F8D5B17D
:104550000CE05D46FBE7E88900F035FEC00405D0BD
:104560001422214605F10800FBF7F5FFB8F800100A
:104570003144A8F80010A079800608D4A87F40F044
:104580000100A87700E041E00AEB0900A883284673
:10459000009900F043F8002836D0A88B142214307C
:1045A000A883686805F10801466830463468FBF75F
:1045B000D2FFA88B00F0EEFD7080A6F806B0A6F83A
:1045C0000AB014213046FFF729FC70816FF0130AFE
:1045D000D5F8049009E051462046666802F028FFAD
:1045E0002146484602F04EFC3468002CF3D139468F
:1045F000284600F04DF9484602F0E1FCB8F80020EA
:10460000101AA8F800004846BDE8F88F009802F09C
:1046100059FE0020F8E70000C80100202DE9F0470E
:104620004C680646884600250127608800F0CBFDCF
:10463000217801F00F01494200EB8109E08800F088
:10464000C2FDC004D8F80440020C0020206002EB38
:104650000900A2801FFA80FCA4F806C071681DE062
:10466000486883889A420ED2216045B1EB889A420D
:1046700075D38088844572D8C5F8008001E0C6F8FB
:10468000048069B12BE06AD0C1888A4267D31DB12A
:10469000E988994200D00027016805460029DFD14A
:1046A00095B1E888A188884206D933A340F29312D5
:1046B0003CA144A0FBF75EFEC5F80080E888A18815
:1046C00088420CD000270AE0706830B12AA340F27B
:1046D0009B1247A13BA0FBF74DFEC6F80480B07FBC
:1046E000C00739D0002F36D072685068808838B93A
:1046F0002068214630B14468C888A1888842F7D034
:10470000002728E0002F26D032B91BA34FF4DE7219
:1047100045A12CA0FBF72EFE70684068A04206D190
:1047200015A340F2BD1240A126A0FBF723FE20688E
:1047300030B111A340F2BF123FA122A0FBF71AFE35
:10474000E088B18B884206D00BA340F2C11243A18E
:104750001CA0FBF70FFE3846BDE8F087FFE7404698
:1047600002F02DFC49490A88101A0880404602F0E0
:10477000A9FD0020F0E700002E2E5C4C5749505C4C
:104780006C7769702D312E342E315C7372635C63EB
:104790006F72655C697076345C69705F66726167C0
:1047A0002E630000636865636B20667261676D65E8
:1047B0006E747320646F6E2774206F7665726C61FF
:1047C00070000000417373657274696F6E2022255A
:1047D0007322206661696C6564206174206C696E67
:1047E0006520256420696E2025730D0A00000000F5
:1047F0006E6F2070726576696F757320667261677F
:104800006D656E742C2074686973206D75737420E7
:1048100062652074686520666972737420667261CF
:10482000676D656E7421000073616E697479206331
:104830006865636B0000000076616C696461746593
:104840005F646174616772616D3A6E6578745F7000
:10485000627566213D4E554C4C00000076616C69D6
:10486000646174655F646174616772616D3A64610B
:1048700074616772616D20656E64213D646174616D
:104880006772616D206C656E00000000C801002039
:1048900070B504460B480D464168A14202D121681B
:1048A000416009E035B908A340F2391211A118A0FE
:1048B000FBF760FD206828602146BDE870400520B8
:1048C00000F0F6BFC80100202E2E5C4C5749505C0A
:1048D0006C7769702D312E342E315C7372635C639A
:1048E0006F72655C697076345C69705F667261676F
:1048F0002E63000073616E69747920636865636B71
:10490000206C696E6B6564206C6973740000000034
:10491000417373657274696F6E202225732220665D
:1049200061696C6564206174206C696E6520256422
:1049300020696E2025730D0A000000002DE9F04764
:10494000064600250F46B14205D12FA3A52239A165
:104950003BA0FBF70FFD47B13868B04205D02AA352
:10496000A72242A136A0FBF705FD74684FF48038FA
:104970006068818800291AD100687060142206F1ED
:1049800008016068FBF7E7FD01212046FFF742FAC6
:10499000204602F014FB0546404505D31AA3B62273
:1049A00037A127A0FBF7E6FC204602F08BFCC146AE
:1049B000746812E06068A0460468404602F0FFFA9E
:1049C00005444D4505D310A3C6222DA11CA0FBF71D
:1049D000D1FCADB2404602F075FC002CEAD139465C
:1049E0003046FFF755FF2E4C2088A84205D206A37B
:1049F000CC222CA112A0FBF7BDFC2088401B2080FC
:104A00002846BDE8F08700002E2E5C4C5749505CCC
:104A10006C7769702D312E342E315C7372635C6358
:104A20006F72655C697076345C69705F667261672D
:104A30002E6300007072657620213D20697072003F
:104A4000417373657274696F6E202225732220662C
:104A500061696C6564206174206C696E65202564F1
:104A600020696E2025730D0A0000000070726576C3
:104A70002D3E6E657874203D3D2069707200000007
:104A800070627566735F6672656564202B20636C67
:104A9000656E203C3D20307866666666000000004A
:104AA000C801002069705F72656173735F70627521
:104AB00066636F756E74203E3D20636C656E00000A
:104AC0002DE9F041DFF868800F46054600260022F8
:104AD00013461446D8F804001AE04169D5F80CC012
:104AE000614509D18169D5F810C0614504D181893A
:104AF000B5F804C0614507D0641C22B1C17F92F8AB
:104B00001FC0614500D80246016801B1034608464E
:104B10000028E2D122B119461046FFF70FFF0644E4
:104B2000BE4201DA012CD2DC3046BDE8F081000043
:104B3000C801002010B500F00BF8BDE810400022BD
:104B400002494FF47A7004F09DB80000354B00081C
:104B500070B50948002544680BE0E07F20B1401E95
:104B6000E0772546246804E0204624682946FFF7BC
:104B7000E5FE002CF1D170BDC801002010B504463F
:104B80000C480AE090F82910C90706D0816822680D
:104B900043680A400B409A420AD000680028F1D1CD
:104BA0000548006818B190F82910C90700D1002005
:104BB00010BD0000580100205C01002008B56946C6
:104BC00000F006F808B1009808BD4FF0FF3008BDAE
:104BD0002DE9FF4102780D466B46A2F130010A290A
:104BE0005ED200240A21302A06D110F8012F782A3B
:104BF00009D0582A07D00821A2F13006092E04D87E
:104C000004FB016414E0102112E0102913D1A2F179
:104C10006106052E03D9A2F14107052F0BD8192EE5
:104C200001D8612600E04126921B0A3242EA0414B0
:104C300010F8012FE0E72E2A0DD09AB1202A11D0CA
:104C40000C2A0FD00A2A0DD00D2A0BD0092A09D020
:104C50000B2A25D106E003A98B4221D210C310F8FC
:104C6000012FBAE76846181A012101EBA0000528B8
:104C700024D2DFE800F01529030A1300B4F1807F85
:104C80000ED2009844EA00641EE0B4F5803F07D2DB
:104C900000980199000640EA01400DE0FF2C03D97D
:104CA000002004B0BDE8F08100980199000640EAB8
:104CB0000140029940EA0120044305E006A3F322E3
:104CC00010A113A0FBF756FB1DB1204600F060FABF
:104CD00028600120E5E700002E2E5C4C5749505C0F
:104CE0006C7769702D312E342E315C7372635C6386
:104CF0006F72655C697076345C69705F6164647260
:104D00002E630000756E68616E646C65640000005F
:104D1000417373657274696F6E2022257322206659
:104D200061696C6564206174206C696E652025641E
:104D300020696E2025730D0A0000000010B50400E4
:104D400006D108A340F2832211A114A0FBF712FBA5
:104D5000606908B102F0B6FA2046BDE81040FFF7DE
:104D60009BB900002E2E5C4C5749505C6C776970E3
:104D70002D312E342E315C7372635C636F72655C0F
:104D8000697076345C69705F667261672E630000DB
:104D900070637220213D204E554C4C004173736569
:104DA0007274696F6E2022257322206661696C65BA
:104DB00064206174206C696E6520256420696E2012
:104DC00025730D0A0000000070B5062180F822103E
:104DD0001D490A7880F823204A7880F824208A78B0
:104DE00080F82520CA7880F826200A7980F82720C4
:104DF000497980F8281040F2DC510184322180F892
:104E0000291000F123010020FCF730F80F48104D65
:104E1000052201682868FBF751FE0E48052201684B
:104E20000D480068FBF710FE00244FF44006286888
:104E3000314600EB4410FBF765FE641C052CF6DBE5
:104E4000FCF732F9002070BD0C5501203400002021
:104E50002C000020300000202800002070B50C46F7
:104E60000025FBF77BFE064607E062897019616842
:104E7000FBF771FB608924680544002CF5D1A8B2CA
:104E8000FCF768F908B1002070BD4FF0FF3070BD2D
:104E900070B512490968C0248471A825C571012222
:104EA00002726823437202230370002343708370ED
:104EB0000E0CC6700E0A067141718472C5720273BF
:104EC00064214173FF218173C1730174437484743D
:104ED000C57402754275837570BD0000107AFF1F9E
:104EE00010B586B00024FCF757F810B1012006B0C9
:104EF00010BD3CA0FBF73EFA00F02CF908B10220EF
:104F0000F5E73DA0FBF736FA4148FFF7C1FF41A0A6
:104F1000FBF730FA0BE046A0FBF72CFA641CE4B276
:104F2000052C04D946A0FBF725FA0320DFE7FBF7A1
:104F3000F3FC0028EFD10021084607F06BFB44A0EA
:104F4000FBF718FA324CA07AD4F80B1040EA012093
:104F50000390A07BD4F80F1040EA01200490A07CBD
:104F6000D4F8131040EA01200590E07862792179A5
:104F70008DE80700A3786278217839A0FBF7FAF969
:104F8000607B0090237BE27AA17A43A0FBF7F2F9E1
:104F9000607C0090237CE27BA17B4BA0FBF7EAF9CD
:104FA000607D0090237DE27CA17C53A0FBF7E2F9B9
:104FB0005D4A5E4900208DE8070005AB04AA03A9FD
:104FC00004F1180001F07AFC48B104F1180001F076
:104FD000EDFC04F1180001F02BFD002087E7042010
:104FE00085E700004554485F4D656D5F4D616C6C11
:104FF0006F630D0A000000006C7769705F636F6D6E
:105000006D5F6D656D5F6D616C6C6F630D0A0000A7
:105010000C5501206C7769705F636F6D6D5F64651F
:105020006661756C745F69705F7365740D0A00006A
:10503000445038333834385F496E69740D0A0000C3
:10504000CDF8BFA8B3F5CABCBBAFCAA7B0DC0A0095
:1050500074637069705F696E69740D0A0000000006
:10506000CDF8BFA8656EB5C44D4143B5D8D6B7CE0F
:10507000AA3A2E2E2E2E2E2E2E2E2E2E2E2E2E2EC8
:105080002E2E25642E25642E25642E25642E25645F
:105090002E25640D0A000000BEB2CCAC4950B5D834
:1050A000D6B72E2E2E2E2E2E2E2E2E2E2E2E2E2EEF
:1050B0002E2E2E2E2E2E2E2E2E2E25642E25642EB6
:1050C00025642E25640D0A00D7D3CDF8D1DAC2EBC2
:1050D0002E2E2E2E2E2E2E2E2E2E2E2E2E2E2E2EF0
:1050E0002E2E2E2E2E2E2E2E2E2E25642E25642E86
:1050F00025642E25640D0A00C4ACC8CFCDF8B9D8FC
:105100002E2E2E2E2E2E2E2E2E2E2E2E2E2E2E2EBF
:105110002E2E2E2E2E2E2E2E2E2E25642E25642E55
:1051200025642E25640D0A00E1C600086D390008CB
:10513000064810B50168002000F05EFD04480168D3
:10514000BDE81040002000F057BD000050010020D5
:105150003C01002010B500F0FFFB0146002000F0EC
:1051600057FD094C44F63C612060002000F050FDE2
:1051700006490860216811B108B1002010BDFFF791
:10518000D7FF012010BD0000500100203C0100208D
:1051900000BA704740BA704710B503F080FC00F0C9
:1051A00051F900F0DDFB01F0EFFB00F015F807F01E
:1051B00069FC04F0FBFBFCF799FCBDE8104003F030
:1051C000E1BD00BA704740BA704700000148FEF7E1
:1051D0001BBC000024550120704718B50022ADF813
:1051E000002010F001030BD0002909DD10F8014B5D
:1051F0008DF80140491E03E030F8024B891E22441D
:105200000129F9DC002902DD00788DF80000BDF8E5
:1052100000001044010C11FA80F0010C11FA80F02A
:1052200023B1C1B2C0F3072040EA012080B218BD0B
:105230001CB54FF44070FCF7C1F8A820FCF786FBC2
:105240004FF4E13007F00EFBFCF764F8FCF740F890
:10525000002000F051FC012000F04EFC022000F084
:105260004BFC02E010A0FBF785F8FFF739FE0028A1
:10527000F8D112A000E017A0FBF77CF803F01EFFA6
:105280000028F8D118A0FBF775F81D490120CDE9D9
:105290000001020200231BA11D4808F08DFD08F04B
:1052A000EDF800201CBD00004C77697020496E6944
:1052B00074206661696C6564210D0A004C77697021
:1052C00020496E69742073756363657373A3A10DC0
:1052D0000A00000054435020436C69656E742066D8
:1052E00061696C656421210054435020436C6965F9
:1052F0006E74207375636365737321210000000071
:105300000000002073746172745F7461736B00003D
:105310000589000870B5040041D0A00706D020A37D
:1053200040F2411227A130A0FBF724F8394D6868FC
:10533000844202D3A868844206D319A340F24312E0
:1053400035A129A0FBF716F86868844202D3A86843
:10535000844205D3FBF74AFFBDE87040FBF75CBF12
:105360002C480021103003F05FFB14F8040C083CBB
:1053700030B90BA34FF4AA722DA11BA0FAF7FAFFC4
:1053800000202071E868844200D2EC60204602F0E0
:1053900031FABDE870401F48103003F04BBC70BDBF
:1053A0002E2E5C4C5749505C6C7769702D312E3431
:1053B0002E315C7372635C636F72655C6D656D2E1C
:1053C000630000006D656D5F667265653A2073610C
:1053D0006E69747920636865636B20616C69676EC0
:1053E0006D656E7400000000417373657274696FBF
:1053F0006E2022257322206661696C6564206174C9
:10540000206C696E6520256420696E2025730D0A65
:10541000000000003C0100206D656D5F66726565EF
:105420003A206C6567616C206D656D6F7279000064
:105430006D656D5F667265653A206D656D2D3E75B3
:105440007365640010B5124A44F6206300211068A9
:105450000124C01C20F003005060038041800171D2
:10546000C11891600C710B804B80D060214602F115
:10547000100003F0D0FB002808D0BDE8104005A3C1
:1054800040F22D120CA113A0FAF774BF10BD00005A
:105490003C0100202E2E5C4C5749505C6C776970A3
:1054A0002D312E342E315C7372635C636F72655CD8
:1054B0006D656D2E630000006661696C6564207423
:1054C0006F20637265617465206D656D5F6D7574C5
:1054D00065780000417373657274696F6E202225D0
:1054E0007322206661696C6564206174206C696E4A
:1054F0006520256420696E2025730D0A00000000D8
:105500002DE9F04700280DD04FF6FC71C01C00EAD1
:10551000010544F620670C2D01D20C2504E0BD42A4
:1055200002D90020BDE8F08700213D4803F07CFA55
:105530003B4E103E7A1BD6F80CC07168ACEB0100F4
:1055400080B267E00C182379002B62D123881B1AE4
:10555000083BAB425DD3228805F11403121A083AC6
:105560004FF001099A4215D34219083293B2CA1872
:105570004FF0000882F80480B4F80080A2F80080A0
:105580005080238084F804901088B84204D08A1C8C
:10559000835201E084F80490644518D1B06803E0B8
:1055A000BCF8002002EB010C9CF804200AB18445F1
:1055B000F6D1C6F80CC0844509D09CF8040030B17F
:1055C00018A340F2632220A126A0FAF7D3FE1448C4
:1055D00003F030FB6019B1680830884206D911A386
:1055E00040F267222AA11FA0FAF7C4FEA0070DD03F
:1055F0000CA340F2692232A11AA0FAF7BBFE09A35C
:1056000040F26B223AA117A0FAF7B4FE04F10800A9
:1056100088E7085A824295DC014803F00BFB80E7DB
:105620004C0100202E2E5C4C5749505C6C77697001
:105630002D312E342E315C7372635C636F72655C46
:105640006D656D2E630000006D656D5F6D616C6C46
:105650006F633A20216C667265652D3E75736564D3
:1056600000000000417373657274696F6E2022251B
:105670007322206661696C6564206174206C696EB8
:105680006520256420696E2025730D0A0000000046
:105690006D656D5F6D616C6C6F633A20616C6C6FF2
:1056A0006361746564206D656D6F7279206E6F74CF
:1056B0002061626F76652072616D5F656E642E0099
:1056C0006D656D5F6D616C6C6F633A20616C6C6FC2
:1056D0006361746564206D656D6F72792070726F9F
:1056E0007065726C7920616C69676E65642E00006C
:1056F0006D656D5F6D616C6C6F633A2073616E698F
:10570000747920636865636B20616C69676E6D6591
:105710006E7400002DE9F04707464FF6FC70C91C77
:1057200001EA000444F6206A0C2C01D20C2401E0AA
:1057300054452DD83B4E7068874202D3B0688742EB
:1057400006D339A340F2871240A146A0FAF712FE11
:105750007068874202D3B1688F4204D3FBF746FDDD
:10576000FBF75AFD19E0A7F10805B046281A86B2E2
:105770002888801B08381FFA80F94C4506D92AA3CF
:1057800040F2991242A137A0FAF7F4FD4C4503D933
:105790004FF00000BDE8F08701D13846FAE7214814
:1057A0004FF0000100F1100003F03EF92888D8F80E
:1057B0000410424600EB0108002398F80400D8B119
:1057C00004F1140CCC4512D83019083084B2D2F848
:1057D0000CC00819604500D2D06003712A8802808D
:1057E00046802C800088504501D0891C44520D48C9
:1057F000103003F01FFAD0E730190830D468B8F839
:1058000000C080B2444501D10C18D4600A1813714D
:10581000A2F800C05680288012885245E7D0891C23
:105820005052E4E73C0100202E2E5C4C5749505C5E
:105830006C7769702D312E342E315C7372635C632A
:105840006F72655C6D656D2E630000006D656D5F48
:105850007472696D3A206C6567616C206D656D6F5F
:1058600072790000417373657274696F6E2022252E
:105870007322206661696C6564206174206C696EB6
:105880006520256420696E2025730D0A0000000044
:105890006D656D5F7472696D2063616E206F6E6CF3
:1058A0007920736872696E6B206D656D6F72790017
:1058B00070B50C00054614D0A00706D009A34FF41C
:1058C000E57211A118A0FAF755FDFBF78FFC2149ED
:1058D00051F82520226041F82540BDE87040FBF7D3
:1058E0009BBC70BD2E2E5C4C5749505C6C77697028
:1058F0002D312E342E315C7372635C636F72655C84
:105900006D656D702E6300006D656D705F6672650C
:10591000653A206D656D2070726F7065726C7920CC
:10592000616C69676E656400417373657274696F59
:105930006E2022257322206661696C656420617483
:10594000206C696E6520256420696E2025730D0A20
:10595000000000008863012043F62B107047000010
:10596000F0B50020401C80B20F28FBD31048124E27
:10597000104C006806F11E05C01C20F00301002039
:10598000074644F82070002209E054F820300B60EC
:1059900044F8201036F81030521C194492B235F8F1
:1059A00010309342F1D8401C80B20F28E9D3F0BDEB
:1059B0005001002088630120F8E2000870B5054618
:1059C0000F2808D310A340F29D1218A11FA0FAF7C8
:1059D000D1FC002070BDFBF709FC0646264850F8B4
:1059E0002540002C0BD0216840F82510A00706D0D8
:1059F00005A34FF4D77221A114A0FAF7BBFC3046DF
:105A0000FBF70AFC204670BD2E2E5C4C5749505CBB
:105A10006C7769702D312E342E315C7372635C6348
:105A20006F72655C6D656D702E6300006D656D70E5
:105A30005F6D616C6C6F633A2074797065203C20F7
:105A40004D454D505F4D4158000000004173736556
:105A50007274696F6E2022257322206661696C65FD
:105A600064206174206C696E6520256420696E2055
:105A700025730D0A00000000886301206D656D70BC
:105A80005F6D616C6C6F633A206D656D7020707234
:105A90006F7065726C7920616C69676E6564000077
:105AA00070B5134A131893F8203093B1114B53F883
:105AB00020308B421AD90F4B02EB80020C3B53F87B
:105AC00020305069B1FBF3F130F81140002003465B
:105AD00008E011688847012070BD55690E18401C08
